{
  "_format": "hh-sol-artifact-1",
  "contractName": "GameLogic",
  "sourceName": "contracts/GameLogic.sol",
  "abi": [
    {
      "inputs": [
        {
          "internalType": "address",
          "name": "_red",
          "type": "address"
        },
        {
          "internalType": "address",
          "name": "_blue",
          "type": "address"
        },
        {
          "internalType": "address",
          "name": "_green",
          "type": "address"
        },
        {
          "internalType": "address",
          "name": "_yellow",
          "type": "address"
        }
      ],
      "stateMutability": "nonpayable",
      "type": "constructor"
    },
    {
      "anonymous": false,
      "inputs": [
        {
          "indexed": false,
          "internalType": "address",
          "name": "voter",
          "type": "address"
        },
        {
          "indexed": false,
          "internalType": "uint256",
          "name": "price",
          "type": "uint256"
        },
        {
          "indexed": false,
          "internalType": "uint256",
          "name": "roundNumber",
          "type": "uint256"
        },
        {
          "indexed": false,
          "internalType": "uint256",
          "name": "color",
          "type": "uint256"
        }
      ],
      "name": "Voted",
      "type": "event"
    },
    {
      "inputs": [],
      "name": "blue",
      "outputs": [
        {
          "internalType": "uint256",
          "name": "mintPrice",
          "type": "uint256"
        },
        {
          "internalType": "uint256",
          "name": "oldSupply",
          "type": "uint256"
        },
        {
          "internalType": "uint256",
          "name": "color",
          "type": "uint256"
        }
      ],
      "stateMutability": "view",
      "type": "function"
    },
    {
      "inputs": [],
      "name": "blueContract",
      "outputs": [
        {
          "internalType": "contract IBlue",
          "name": "",
          "type": "address"
        }
      ],
      "stateMutability": "view",
      "type": "function"
    },
    {
      "inputs": [],
      "name": "claimReward",
      "outputs": [],
      "stateMutability": "payable",
      "type": "function"
    },
    {
      "inputs": [
        {
          "internalType": "uint256",
          "name": "",
          "type": "uint256"
        }
      ],
      "name": "colorToNFT",
      "outputs": [
        {
          "internalType": "uint256",
          "name": "mintPrice",
          "type": "uint256"
        },
        {
          "internalType": "uint256",
          "name": "oldSupply",
          "type": "uint256"
        },
        {
          "internalType": "uint256",
          "name": "color",
          "type": "uint256"
        }
      ],
      "stateMutability": "view",
      "type": "function"
    },
    {
      "inputs": [],
      "name": "currentRoundPool",
      "outputs": [
        {
          "internalType": "uint256",
          "name": "",
          "type": "uint256"
        }
      ],
      "stateMutability": "view",
      "type": "function"
    },
    {
      "inputs": [],
      "name": "green",
      "outputs": [
        {
          "internalType": "uint256",
          "name": "mintPrice",
          "type": "uint256"
        },
        {
          "internalType": "uint256",
          "name": "oldSupply",
          "type": "uint256"
        },
        {
          "internalType": "uint256",
          "name": "color",
          "type": "uint256"
        }
      ],
      "stateMutability": "view",
      "type": "function"
    },
    {
      "inputs": [],
      "name": "greenContract",
      "outputs": [
        {
          "internalType": "contract IGreen",
          "name": "",
          "type": "address"
        }
      ],
      "stateMutability": "view",
      "type": "function"
    },
    {
      "inputs": [
        {
          "internalType": "uint256[]",
          "name": "tokenIds",
          "type": "uint256[]"
        }
      ],
      "name": "mintSpecialNFT",
      "outputs": [],
      "stateMutability": "nonpayable",
      "type": "function"
    },
    {
      "inputs": [],
      "name": "mintWinner",
      "outputs": [],
      "stateMutability": "payable",
      "type": "function"
    },
    {
      "inputs": [
        {
          "internalType": "address",
          "name": "dest",
          "type": "address"
        }
      ],
      "name": "payments",
      "outputs": [
        {
          "internalType": "uint256",
          "name": "",
          "type": "uint256"
        }
      ],
      "stateMutability": "view",
      "type": "function"
    },
    {
      "inputs": [],
      "name": "red",
      "outputs": [
        {
          "internalType": "uint256",
          "name": "mintPrice",
          "type": "uint256"
        },
        {
          "internalType": "uint256",
          "name": "oldSupply",
          "type": "uint256"
        },
        {
          "internalType": "uint256",
          "name": "color",
          "type": "uint256"
        }
      ],
      "stateMutability": "view",
      "type": "function"
    },
    {
      "inputs": [],
      "name": "redContract",
      "outputs": [
        {
          "internalType": "contract IRed",
          "name": "",
          "type": "address"
        }
      ],
      "stateMutability": "view",
      "type": "function"
    },
    {
      "inputs": [],
      "name": "redeemAll",
      "outputs": [],
      "stateMutability": "nonpayable",
      "type": "function"
    },
    {
      "inputs": [],
      "name": "reset",
      "outputs": [],
      "stateMutability": "nonpayable",
      "type": "function"
    },
    {
      "inputs": [],
      "name": "resetTime",
      "outputs": [
        {
          "internalType": "uint256",
          "name": "",
          "type": "uint256"
        }
      ],
      "stateMutability": "view",
      "type": "function"
    },
    {
      "inputs": [],
      "name": "roundNumber",
      "outputs": [
        {
          "internalType": "uint256",
          "name": "",
          "type": "uint256"
        }
      ],
      "stateMutability": "view",
      "type": "function"
    },
    {
      "inputs": [
        {
          "internalType": "address",
          "name": "",
          "type": "address"
        },
        {
          "internalType": "uint256",
          "name": "",
          "type": "uint256"
        }
      ],
      "name": "roundToVoter",
      "outputs": [
        {
          "internalType": "bool",
          "name": "voted",
          "type": "bool"
        },
        {
          "internalType": "uint256",
          "name": "color",
          "type": "uint256"
        },
        {
          "internalType": "uint256",
          "name": "mintPrice",
          "type": "uint256"
        },
        {
          "internalType": "bool",
          "name": "minted",
          "type": "bool"
        },
        {
          "internalType": "bool",
          "name": "claimedReward",
          "type": "bool"
        }
      ],
      "stateMutability": "view",
      "type": "function"
    },
    {
      "inputs": [],
      "name": "sidePotPool",
      "outputs": [
        {
          "internalType": "address",
          "name": "",
          "type": "address"
        }
      ],
      "stateMutability": "view",
      "type": "function"
    },
    {
      "inputs": [],
      "name": "specialNFTContract",
      "outputs": [
        {
          "internalType": "contract ISpecialNFT",
          "name": "",
          "type": "address"
        }
      ],
      "stateMutability": "view",
      "type": "function"
    },
    {
      "inputs": [
        {
          "internalType": "uint256",
          "name": "_color",
          "type": "uint256"
        }
      ],
      "name": "voteForColor",
      "outputs": [],
      "stateMutability": "payable",
      "type": "function"
    },
    {
      "inputs": [],
      "name": "votersInRound",
      "outputs": [
        {
          "internalType": "uint256",
          "name": "",
          "type": "uint256"
        }
      ],
      "stateMutability": "view",
      "type": "function"
    },
    {
      "inputs": [
        {
          "internalType": "uint256",
          "name": "_color",
          "type": "uint256"
        }
      ],
      "name": "votingPrice",
      "outputs": [
        {
          "internalType": "uint256",
          "name": "",
          "type": "uint256"
        }
      ],
      "stateMutability": "nonpayable",
      "type": "function"
    },
    {
      "inputs": [],
      "name": "winningColor",
      "outputs": [
        {
          "internalType": "uint256",
          "name": "",
          "type": "uint256"
        }
      ],
      "stateMutability": "view",
      "type": "function"
    },
    {
      "inputs": [],
      "name": "winningRound",
      "outputs": [
        {
          "internalType": "uint256",
          "name": "",
          "type": "uint256"
        }
      ],
      "stateMutability": "view",
      "type": "function"
    },
    {
      "inputs": [],
      "name": "winningStatus",
      "outputs": [
        {
          "internalType": "bool",
          "name": "",
          "type": "bool"
        }
      ],
      "stateMutability": "view",
      "type": "function"
    },
    {
      "inputs": [
        {
          "internalType": "address payable",
          "name": "payee",
          "type": "address"
        }
      ],
      "name": "withdrawPayments",
      "outputs": [],
      "stateMutability": "nonpayable",
      "type": "function"
    },
    {
      "inputs": [],
      "name": "yellow",
      "outputs": [
        {
          "internalType": "uint256",
          "name": "mintPrice",
          "type": "uint256"
        },
        {
          "internalType": "uint256",
          "name": "oldSupply",
          "type": "uint256"
        },
        {
          "internalType": "uint256",
          "name": "color",
          "type": "uint256"
        }
      ],
      "stateMutability": "view",
      "type": "function"
    },
    {
      "inputs": [],
      "name": "yellowContract",
      "outputs": [
        {
          "internalType": "contract IYellow",
          "name": "",
          "type": "address"
        }
      ],
      "stateMutability": "view",
      "type": "function"
    }
  ],
  "bytecode": "0x60a06040526000600155604051806060016040528067016345785d8a00008152602001600081526020016001815250600b6000820151816000015560208201518160010155604082015181600201555050604051806060016040528067016345785d8a00008152602001600081526020016002815250600e6000820151816000015560208201518160010155604082015181600201555050604051806060016040528067016345785d8a0000815260200160008152602001600381525060116000820151816000015560208201518160010155604082015181600201555050604051806060016040528067016345785d8a00008152602001600081526020016004815250601460008201518160000155602082015181600101556040820151816002015550503480156200013257600080fd5b50604051620044d9380380620044d98339818101604052810190620001589190620003d1565b6040516200016690620003ac565b604051809103906000f08015801562000183573d6000803e3d6000fd5b5073ffffffffffffffffffffffffffffffffffffffff1660808173ffffffffffffffffffffffffffffffffffffffff1660601b81525050600160008190555083601760006101000a81548173ffffffffffffffffffffffffffffffffffffffff021916908373ffffffffffffffffffffffffffffffffffffffff16021790555082601860006101000a81548173ffffffffffffffffffffffffffffffffffffffff021916908373ffffffffffffffffffffffffffffffffffffffff16021790555081601960006101000a81548173ffffffffffffffffffffffffffffffffffffffff021916908373ffffffffffffffffffffffffffffffffffffffff16021790555080601a60006101000a81548173ffffffffffffffffffffffffffffffffffffffff021916908373ffffffffffffffffffffffffffffffffffffffff160217905550600b6009600060018152602001908152602001600020600082015481600001556001820154816001015560028201548160020155905050600e60096000600281526020019081526020016000206000820154816000015560018201548160010155600282015481600201559050506011600960006003815260200190815260200160002060008201548160000155600182015481600101556002820154816002015590505060146009600060048152602001908152602001600020600082015481600001556001820154816001015560028201548160020155905050505050506200048b565b610d0980620037d083390190565b600081519050620003cb8162000471565b92915050565b60008060008060808587031215620003e857600080fd5b6000620003f887828801620003ba565b94505060206200040b87828801620003ba565b93505060406200041e87828801620003ba565b92505060606200043187828801620003ba565b91505092959194509250565b60006200044a8262000451565b9050919050565b600073ffffffffffffffffffffffffffffffffffffffff82169050919050565b6200047c816200043d565b81146200048857600080fd5b50565b60805160601c613318620004b8600039600081816106940152818161229c015261244401526133186000f3fe6080604052600436106101b75760003560e01c8063b345bdfc116100ec578063cbdb2e771161008a578063ed18f0a711610064578063ed18f0a714610599578063f05f4b00146105c6578063f2f1e132146105f1578063f5fcffb11461061e576101b7565b8063cbdb2e771461051a578063d826f88f14610545578063e2982c211461055c576101b7565b8063b9f68eb1116100c6578063b9f68eb11461047d578063bb9fca17146104a6578063be9faf13146104d1578063c60deabd146104fe576101b7565b8063b345bdfc14610409578063b88a802f14610448578063b9ebc2d014610452576101b7565b80634e2786fb1161015957806365a114f11161013357806365a114f11461036c5780639787fc7f14610397578063a1f532f6146103a1578063a3535b14146103cc576101b7565b80634e2786fb146102eb5780634f3516c7146103165780635fdf643d14610341576101b7565b806331b3eb941161019557806331b3eb941461022b5780633609fc9f146102545780634949787b146102955780634c914658146102c0576101b7565b80631dc5ab96146101bc5780632930cf24146101e75780632f4350c214610214575b600080fd5b3480156101c857600080fd5b506101d1610649565b6040516101de91906129a6565b60405180910390f35b3480156101f357600080fd5b506101fc61066f565b60405161020b93929190612d21565b60405180910390f35b34801561022057600080fd5b50610229610687565b005b34801561023757600080fd5b50610252600480360381019061024d9190612600565b610692565b005b34801561026057600080fd5b5061027b60048036038101906102769190612629565b610720565b60405161028c959493929190612a3c565b60405180910390f35b3480156102a157600080fd5b506102aa61078a565b6040516102b79190612d06565b60405180910390f35b3480156102cc57600080fd5b506102d5610790565b6040516102e29190612d06565b60405180910390f35b3480156102f757600080fd5b50610300610796565b60405161030d9190612d06565b60405180910390f35b34801561032257600080fd5b5061032b61079c565b6040516103389190612d06565b60405180910390f35b34801561034d57600080fd5b506103566107a2565b6040516103639190612ac5565b60405180910390f35b34801561037857600080fd5b506103816107c8565b60405161038e9190612d06565b60405180910390f35b61039f6107ce565b005b3480156103ad57600080fd5b506103b6610e85565b6040516103c39190612ae0565b60405180910390f35b3480156103d857600080fd5b506103f360048036038101906103ee91906126aa565b610eab565b6040516104009190612d06565b60405180910390f35b34801561041557600080fd5b50610430600480360381019061042b91906126aa565b610faf565b60405161043f93929190612d21565b60405180910390f35b610450610fd9565b005b34801561045e57600080fd5b50610467611380565b6040516104749190612a8f565b60405180910390f35b34801561048957600080fd5b506104a4600480360381019061049f9190612665565b6113a6565b005b3480156104b257600080fd5b506104bb611d38565b6040516104c89190612aaa565b60405180910390f35b3480156104dd57600080fd5b506104e6611d5e565b6040516104f593929190612d21565b60405180910390f35b610518600480360381019061051391906126aa565b611d76565b005b34801561052657600080fd5b5061052f612139565b60405161053c9190612a21565b60405180910390f35b34801561055157600080fd5b5061055a61214c565b005b34801561056857600080fd5b50610583600480360381019061057e91906125ae565b612298565b6040516105909190612d06565b60405180910390f35b3480156105a557600080fd5b506105ae61234a565b6040516105bd93929190612d21565b60405180910390f35b3480156105d257600080fd5b506105db612362565b6040516105e89190612d06565b60405180910390f35b3480156105fd57600080fd5b50610606612368565b60405161061593929190612d21565b60405180910390f35b34801561062a57600080fd5b50610633612380565b6040516106409190612afb565b60405180910390f35b600560009054906101000a900473ffffffffffffffffffffffffffffffffffffffff1681565b600b8060000154908060010154908060020154905083565b61069033610692565b565b7f000000000000000000000000000000000000000000000000000000000000000073ffffffffffffffffffffffffffffffffffffffff166351cff8d9826040518263ffffffff1660e01b81526004016106eb91906129c1565b600060405180830381600087803b15801561070557600080fd5b505af1158015610719573d6000803e3d6000fd5b5050505050565b600a602052816000526040600020602052806000526040600020600091509150508060000160009054906101000a900460ff16908060010154908060020154908060030160009054906101000a900460ff16908060030160019054906101000a900460ff16905085565b60025481565b60045481565b60015481565b60075481565b601760009054906101000a900473ffffffffffffffffffffffffffffffffffffffff1681565b60065481565b60026000541415610814576040517f08c379a000000000000000000000000000000000000000000000000000000000815260040161080b90612c66565b60405180910390fd5b600260008190555060011515600a60003373ffffffffffffffffffffffffffffffffffffffff1673ffffffffffffffffffffffffffffffffffffffff1681526020019081526020016000206000600354815260200190815260200160002060000160009054906101000a900460ff161515146108c5576040517f08c379a00000000000000000000000000000000000000000000000000000000081526004016108bc90612c26565b60405180910390fd5b600254600a60003373ffffffffffffffffffffffffffffffffffffffff1673ffffffffffffffffffffffffffffffffffffffff16815260200190815260200160002060006003548152602001908152602001600020600101541461095e576040517f08c379a000000000000000000000000000000000000000000000000000000000815260040161095590612b86565b60405180910390fd5b60001515600a60003373ffffffffffffffffffffffffffffffffffffffff1673ffffffffffffffffffffffffffffffffffffffff1681526020019081526020016000206000600354815260200190815260200160002060030160019054906101000a900460ff16151514610a07576040517f08c379a00000000000000000000000000000000000000000000000000000000081526004016109fe90612b66565b60405180910390fd5b60001515600a60003373ffffffffffffffffffffffffffffffffffffffff1673ffffffffffffffffffffffffffffffffffffffff1681526020019081526020016000206000600354815260200190815260200160002060030160009054906101000a900460ff16151514610ab0576040517f08c379a0000000000000000000000000000000000000000000000000000000008152600401610aa790612cc6565b60405180910390fd5b6001600a60003373ffffffffffffffffffffffffffffffffffffffff1673ffffffffffffffffffffffffffffffffffffffff168152602001908152602001600020600060035481526020019081526020016000206001015414610d7f576002600a60003373ffffffffffffffffffffffffffffffffffffffff1673ffffffffffffffffffffffffffffffffffffffff168152602001908152602001600020600060035481526020019081526020016000206001015414610cec576003600a60003373ffffffffffffffffffffffffffffffffffffffff1673ffffffffffffffffffffffffffffffffffffffff168152602001908152602001600020600060035481526020019081526020016000206001015414610c5957601a60009054906101000a900473ffffffffffffffffffffffffffffffffffffffff1673ffffffffffffffffffffffffffffffffffffffff16634894d393336040518263ffffffff1660e01b8152600401610c2291906129a6565b600060405180830381600087803b158015610c3c57600080fd5b505af1158015610c50573d6000803e3d6000fd5b50505050610ce7565b601960009054906101000a900473ffffffffffffffffffffffffffffffffffffffff1673ffffffffffffffffffffffffffffffffffffffff16634894d393336040518263ffffffff1660e01b8152600401610cb491906129a6565b600060405180830381600087803b158015610cce57600080fd5b505af1158015610ce2573d6000803e3d6000fd5b505050505b610d7a565b601860009054906101000a900473ffffffffffffffffffffffffffffffffffffffff1673ffffffffffffffffffffffffffffffffffffffff16634894d393336040518263ffffffff1660e01b8152600401610d4791906129a6565b600060405180830381600087803b158015610d6157600080fd5b505af1158015610d75573d6000803e3d6000fd5b505050505b610e0d565b601760009054906101000a900473ffffffffffffffffffffffffffffffffffffffff1673ffffffffffffffffffffffffffffffffffffffff16634894d393336040518263ffffffff1660e01b8152600401610dda91906129a6565b600060405180830381600087803b158015610df457600080fd5b505af1158015610e08573d6000803e3d6000fd5b505050505b6001600a60003373ffffffffffffffffffffffffffffffffffffffff1673ffffffffffffffffffffffffffffffffffffffff1681526020019081526020016000206000600354815260200190815260200160002060030160006101000a81548160ff0219169083151502179055506001600081905550565b601b60009054906101000a900473ffffffffffffffffffffffffffffffffffffffff1681565b60008060096000848152602001908152602001600020600101549050600060018210610ee1576701aa535d3d0c00009050610fa5565b60028210610ef957670214e8348c4f00009050610fa4565b60038210610f115767027f7d0bdb9200009050610fa3565b60048210610f295767030d98d59a9600009050610fa2565b60058210610f41576703782dace9d900009050610fa1565b60068210610f5957670429d069189e00009050610fa0565b60078210610f715767054607fc96a600009050610f9f565b60088210610f895767063eb89da4ed00009050610f9e565b60098210610f9d57670853a0d2313c000090505b5b5b5b5b5b5b5b5b8092505050919050565b60096020528060005260406000206000915090508060000154908060010154908060020154905083565b6002600054141561101f576040517f08c379a000000000000000000000000000000000000000000000000000000000815260040161101690612c66565b60405180910390fd5b600260008190555060011515600a60003373ffffffffffffffffffffffffffffffffffffffff1673ffffffffffffffffffffffffffffffffffffffff1681526020019081526020016000206000600354815260200190815260200160002060000160009054906101000a900460ff161515146110d0576040517f08c379a00000000000000000000000000000000000000000000000000000000081526004016110c790612c26565b60405180910390fd5b60001515600a60003373ffffffffffffffffffffffffffffffffffffffff1673ffffffffffffffffffffffffffffffffffffffff1681526020019081526020016000206000600354815260200190815260200160002060030160019054906101000a900460ff16151514611179576040517f08c379a000000000000000000000000000000000000000000000000000000000815260040161117090612b66565b60405180910390fd5b6111ba6040518060400160405280601181526020017f63757272656e74526f756e64506f6f6c200000000000000000000000000000008152506004546123a6565b6111fb6040518060400160405280600e81526020017f766f74657273496e526f756e64200000000000000000000000000000000000008152506007546123a6565b61126d6040518060400160405280600781526020017f616d6f756e742000000000000000000000000000000000000000000000000000815250600a806007546004546112479190612dca565b6112519190612dfb565b60045461125e9190612e55565b6112689190612dca565b6123a6565b6112aa33600a806007546004546112849190612dca565b61128e9190612dfb565b60045461129b9190612e55565b6112a59190612dca565b612442565b6112b2610687565b6113086040518060400160405280601781526020017f62616c616e63652061667465722072656465656d416c6c0000000000000000008152503373ffffffffffffffffffffffffffffffffffffffff16316123a6565b6001600a60003373ffffffffffffffffffffffffffffffffffffffff1673ffffffffffffffffffffffffffffffffffffffff1681526020019081526020016000206000600354815260200190815260200160002060030160016101000a81548160ff0219169083151502179055506001600081905550565b601860009054906101000a900473ffffffffffffffffffffffffffffffffffffffff1681565b600082829050905060048111156113f2576040517f08c379a00000000000000000000000000000000000000000000000000000000081526004016113e990612b46565b60405180910390fd5b6000601760009054906101000a900473ffffffffffffffffffffffffffffffffffffffff1673ffffffffffffffffffffffffffffffffffffffff16636352211e8585600081811061146c577f4e487b7100000000000000000000000000000000000000000000000000000000600052603260045260246000fd5b905060200201356040518263ffffffff1660e01b815260040161148f9190612d06565b602060405180830381600087803b1580156114a957600080fd5b505af11580156114bd573d6000803e3d6000fd5b505050506040513d601f19601f820116820180604052508101906114e191906125d7565b90506000601860009054906101000a900473ffffffffffffffffffffffffffffffffffffffff1673ffffffffffffffffffffffffffffffffffffffff16636352211e8686600181811061155d577f4e487b7100000000000000000000000000000000000000000000000000000000600052603260045260246000fd5b905060200201356040518263ffffffff1660e01b81526004016115809190612d06565b602060405180830381600087803b15801561159a57600080fd5b505af11580156115ae573d6000803e3d6000fd5b505050506040513d601f19601f820116820180604052508101906115d291906125d7565b90506000601960009054906101000a900473ffffffffffffffffffffffffffffffffffffffff1673ffffffffffffffffffffffffffffffffffffffff16636352211e8787600281811061164e577f4e487b7100000000000000000000000000000000000000000000000000000000600052603260045260246000fd5b905060200201356040518263ffffffff1660e01b81526004016116719190612d06565b602060405180830381600087803b15801561168b57600080fd5b505af115801561169f573d6000803e3d6000fd5b505050506040513d601f19601f820116820180604052508101906116c391906125d7565b90506000601a60009054906101000a900473ffffffffffffffffffffffffffffffffffffffff1673ffffffffffffffffffffffffffffffffffffffff16636352211e8888600381811061173f577f4e487b7100000000000000000000000000000000000000000000000000000000600052603260045260246000fd5b905060200201356040518263ffffffff1660e01b81526004016117629190612d06565b602060405180830381600087803b15801561177c57600080fd5b505af1158015611790573d6000803e3d6000fd5b505050506040513d601f19601f820116820180604052508101906117b491906125d7565b90508373ffffffffffffffffffffffffffffffffffffffff163373ffffffffffffffffffffffffffffffffffffffff1614611824576040517f08c379a000000000000000000000000000000000000000000000000000000000815260040161181b90612ce6565b60405180910390fd5b8273ffffffffffffffffffffffffffffffffffffffff163373ffffffffffffffffffffffffffffffffffffffff1614611892576040517f08c379a000000000000000000000000000000000000000000000000000000000815260040161188990612c86565b60405180910390fd5b8173ffffffffffffffffffffffffffffffffffffffff163373ffffffffffffffffffffffffffffffffffffffff1614611900576040517f08c379a00000000000000000000000000000000000000000000000000000000081526004016118f790612bc6565b60405180910390fd5b8073ffffffffffffffffffffffffffffffffffffffff163373ffffffffffffffffffffffffffffffffffffffff161461196e576040517f08c379a000000000000000000000000000000000000000000000000000000000815260040161196590612ba6565b60405180910390fd5b601760009054906101000a900473ffffffffffffffffffffffffffffffffffffffff1673ffffffffffffffffffffffffffffffffffffffff166342966c68888860008181106119e6577f4e487b7100000000000000000000000000000000000000000000000000000000600052603260045260246000fd5b905060200201356040518263ffffffff1660e01b8152600401611a099190612d06565b600060405180830381600087803b158015611a2357600080fd5b505af1158015611a37573d6000803e3d6000fd5b50505050601860009054906101000a900473ffffffffffffffffffffffffffffffffffffffff1673ffffffffffffffffffffffffffffffffffffffff166342966c6888886001818110611ab3577f4e487b7100000000000000000000000000000000000000000000000000000000600052603260045260246000fd5b905060200201356040518263ffffffff1660e01b8152600401611ad69190612d06565b600060405180830381600087803b158015611af057600080fd5b505af1158015611b04573d6000803e3d6000fd5b50505050601960009054906101000a900473ffffffffffffffffffffffffffffffffffffffff1673ffffffffffffffffffffffffffffffffffffffff166342966c6888886002818110611b80577f4e487b7100000000000000000000000000000000000000000000000000000000600052603260045260246000fd5b905060200201356040518263ffffffff1660e01b8152600401611ba39190612d06565b600060405180830381600087803b158015611bbd57600080fd5b505af1158015611bd1573d6000803e3d6000fd5b50505050601a60009054906101000a900473ffffffffffffffffffffffffffffffffffffffff1673ffffffffffffffffffffffffffffffffffffffff166342966c6888886003818110611c4d577f4e487b7100000000000000000000000000000000000000000000000000000000600052603260045260246000fd5b905060200201356040518263ffffffff1660e01b8152600401611c709190612d06565b600060405180830381600087803b158015611c8a57600080fd5b505af1158015611c9e573d6000803e3d6000fd5b50505050601b60009054906101000a900473ffffffffffffffffffffffffffffffffffffffff1673ffffffffffffffffffffffffffffffffffffffff16634894d393336040518263ffffffff1660e01b8152600401611cfd91906129a6565b600060405180830381600087803b158015611d1757600080fd5b505af1158015611d2b573d6000803e3d6000fd5b5050505050505050505050565b601960009054906101000a900473ffffffffffffffffffffffffffffffffffffffff1681565b60148060000154908060010154908060020154905083565b60006009600083815260200190815260200160002090506000611d9c8260020154610eab565b9050803414611de0576040517f08c379a0000000000000000000000000000000000000000000000000000000008152600401611dd790612c06565b60405180910390fd5b60018310158015611df2575060048311155b611e31576040517f08c379a0000000000000000000000000000000000000000000000000000000008152600401611e2890612ca6565b60405180910390fd5b6001826001016000828254611e469190612d74565b9250508190555082826002018190555082600a60003373ffffffffffffffffffffffffffffffffffffffff1673ffffffffffffffffffffffffffffffffffffffff168152602001908152602001600020600060015481526020019081526020016000206001018190555080826000018190555080600a60003373ffffffffffffffffffffffffffffffffffffffff1673ffffffffffffffffffffffffffffffffffffffff1681526020019081526020016000206000600154815260200190815260200160002060020181905550611f526040518060400160405280600981526020017f5072696365206973200000000000000000000000000000000000000000000000815250826123a6565b611f956040518060400160405280600a81526020017f537570706c79206973200000000000000000000000000000000000000000000081525083600101546123a6565b611fd66040518060400160405280601081526020017f526f756e64206e756d62657220697320000000000000000000000000000000008152506001546123a6565b60006064605a34611fe79190612dfb565b611ff19190612dca565b9050611ffd3382612442565b346004600082825461200f9190612d74565b92505081905550600a836001015414156120535760015460038190555082600201546002819055506001600860006101000a81548160ff0219169083151502179055505b6001600a60003373ffffffffffffffffffffffffffffffffffffffff1673ffffffffffffffffffffffffffffffffffffffff1681526020019081526020016000206000600154815260200190815260200160002060000160006101000a81548160ff0219169083151502179055506001600760008282546120d49190612d74565b9250508190555062015180426120ea9190612d74565b6006819055507fc32b42768a47a585121e9b8d7a2ab9d3f34c326a192dee11ee1732e3d18313f33384600001546001548760405161212b94939291906129dc565b60405180910390a150505050565b600860009054906101000a900460ff1681565b6006544211612190576040517f08c379a000000000000000000000000000000000000000000000000000000000815260040161218790612be6565b60405180910390fd5b60011515600860009054906101000a900460ff161515146121e6576040517f08c379a00000000000000000000000000000000000000000000000000000000081526004016121dd90612c46565b60405180910390fd5b600060028190555060018060008282546122009190612d74565b925050819055506000600b6001018190555067016345785d8a0000600b600001819055506000600e6001018190555067016345785d8a0000600e60000181905550600060146001018190555067016345785d8a0000601460000181905550600060116001018190555067016345785d8a00006011600001819055506000600860006101000a81548160ff021916908315150217905550565b60007f000000000000000000000000000000000000000000000000000000000000000073ffffffffffffffffffffffffffffffffffffffff1663e3a9db1a836040518263ffffffff1660e01b81526004016122f391906129a6565b60206040518083038186803b15801561230b57600080fd5b505afa15801561231f573d6000803e3d6000fd5b505050506040513d601f19601f8201168201806040525081019061234391906126d3565b9050919050565b600e8060000154908060010154908060020154905083565b60035481565b60118060000154908060010154908060020154905083565b601a60009054906101000a900473ffffffffffffffffffffffffffffffffffffffff1681565b61243e82826040516024016123bc929190612b16565b6040516020818303038152906040527f9710a9d0000000000000000000000000000000000000000000000000000000007bffffffffffffffffffffffffffffffffffffffffffffffffffffffff19166020820180517bffffffffffffffffffffffffffffffffffffffffffffffffffffffff83818316178352505050506124d2565b5050565b7f000000000000000000000000000000000000000000000000000000000000000073ffffffffffffffffffffffffffffffffffffffff1663f340fa0182846040518363ffffffff1660e01b815260040161249c91906129a6565b6000604051808303818588803b1580156124b557600080fd5b505af11580156124c9573d6000803e3d6000fd5b50505050505050565b60008151905060006a636f6e736f6c652e6c6f679050602083016000808483855afa5050505050565b60008135905061250a8161329d565b92915050565b60008151905061251f8161329d565b92915050565b600081359050612534816132b4565b92915050565b60008083601f84011261254c57600080fd5b8235905067ffffffffffffffff81111561256557600080fd5b60208301915083602082028301111561257d57600080fd5b9250929050565b600081359050612593816132cb565b92915050565b6000815190506125a8816132cb565b92915050565b6000602082840312156125c057600080fd5b60006125ce848285016124fb565b91505092915050565b6000602082840312156125e957600080fd5b60006125f784828501612510565b91505092915050565b60006020828403121561261257600080fd5b600061262084828501612525565b91505092915050565b6000806040838503121561263c57600080fd5b600061264a858286016124fb565b925050602061265b85828601612584565b9150509250929050565b6000806020838503121561267857600080fd5b600083013567ffffffffffffffff81111561269257600080fd5b61269e8582860161253a565b92509250509250929050565b6000602082840312156126bc57600080fd5b60006126ca84828501612584565b91505092915050565b6000602082840312156126e557600080fd5b60006126f384828501612599565b91505092915050565b61270581612e9b565b82525050565b61271481612e89565b82525050565b61272381612ead565b82525050565b61273281612ee3565b82525050565b61274181612f07565b82525050565b61275081612f2b565b82525050565b61275f81612f4f565b82525050565b61276e81612f73565b82525050565b600061277f82612d58565b6127898185612d63565b9350612799818560208601612f97565b6127a281613028565b840191505092915050565b60006127ba600f83612d63565b91506127c582613039565b602082019050919050565b60006127dd602583612d63565b91506127e882613062565b604082019050919050565b6000612800601883612d63565b915061280b826130b1565b602082019050919050565b6000612823601483612d63565b915061282e826130da565b602082019050919050565b6000612846601383612d63565b915061285182613103565b602082019050919050565b6000612869600d83612d63565b91506128748261312c565b602082019050919050565b600061288c601383612d63565b915061289782613155565b602082019050919050565b60006128af600c83612d63565b91506128ba8261317e565b602082019050919050565b60006128d2601583612d63565b91506128dd826131a7565b602082019050919050565b60006128f5601f83612d63565b9150612900826131d0565b602082019050919050565b6000612918601283612d63565b9150612923826131f9565b602082019050919050565b600061293b600b83612d63565b915061294682613222565b602082019050919050565b600061295e601983612d63565b91506129698261324b565b602082019050919050565b6000612981601183612d63565b915061298c82613274565b602082019050919050565b6129a081612ed9565b82525050565b60006020820190506129bb600083018461270b565b92915050565b60006020820190506129d660008301846126fc565b92915050565b60006080820190506129f1600083018761270b565b6129fe6020830186612997565b612a0b6040830185612997565b612a186060830184612997565b95945050505050565b6000602082019050612a36600083018461271a565b92915050565b600060a082019050612a51600083018861271a565b612a5e6020830187612997565b612a6b6040830186612997565b612a78606083018561271a565b612a85608083018461271a565b9695505050505050565b6000602082019050612aa46000830184612729565b92915050565b6000602082019050612abf6000830184612738565b92915050565b6000602082019050612ada6000830184612747565b92915050565b6000602082019050612af56000830184612756565b92915050565b6000602082019050612b106000830184612765565b92915050565b60006040820190508181036000830152612b308185612774565b9050612b3f6020830184612997565b9392505050565b60006020820190508181036000830152612b5f816127ad565b9050919050565b60006020820190508181036000830152612b7f816127d0565b9050919050565b60006020820190508181036000830152612b9f816127f3565b9050919050565b60006020820190508181036000830152612bbf81612816565b9050919050565b60006020820190508181036000830152612bdf81612839565b9050919050565b60006020820190508181036000830152612bff8161285c565b9050919050565b60006020820190508181036000830152612c1f8161287f565b9050919050565b60006020820190508181036000830152612c3f816128a2565b9050919050565b60006020820190508181036000830152612c5f816128c5565b9050919050565b60006020820190508181036000830152612c7f816128e8565b9050919050565b60006020820190508181036000830152612c9f8161290b565b9050919050565b60006020820190508181036000830152612cbf8161292e565b9050919050565b60006020820190508181036000830152612cdf81612951565b9050919050565b60006020820190508181036000830152612cff81612974565b9050919050565b6000602082019050612d1b6000830184612997565b92915050565b6000606082019050612d366000830186612997565b612d436020830185612997565b612d506040830184612997565b949350505050565b600081519050919050565b600082825260208201905092915050565b6000612d7f82612ed9565b9150612d8a83612ed9565b9250827fffffffffffffffffffffffffffffffffffffffffffffffffffffffffffffffff03821115612dbf57612dbe612fca565b5b828201905092915050565b6000612dd582612ed9565b9150612de083612ed9565b925082612df057612def612ff9565b5b828204905092915050565b6000612e0682612ed9565b9150612e1183612ed9565b9250817fffffffffffffffffffffffffffffffffffffffffffffffffffffffffffffffff0483118215151615612e4a57612e49612fca565b5b828202905092915050565b6000612e6082612ed9565b9150612e6b83612ed9565b925082821015612e7e57612e7d612fca565b5b828203905092915050565b6000612e9482612eb9565b9050919050565b6000612ea682612eb9565b9050919050565b60008115159050919050565b600073ffffffffffffffffffffffffffffffffffffffff82169050919050565b6000819050919050565b6000612eee82612ef5565b9050919050565b6000612f0082612eb9565b9050919050565b6000612f1282612f19565b9050919050565b6000612f2482612eb9565b9050919050565b6000612f3682612f3d565b9050919050565b6000612f4882612eb9565b9050919050565b6000612f5a82612f61565b9050919050565b6000612f6c82612eb9565b9050919050565b6000612f7e82612f85565b9050919050565b6000612f9082612eb9565b9050919050565b60005b83811015612fb5578082015181840152602081019050612f9a565b83811115612fc4576000848401525b50505050565b7f4e487b7100000000000000000000000000000000000000000000000000000000600052601160045260246000fd5b7f4e487b7100000000000000000000000000000000000000000000000000000000600052601260045260246000fd5b6000601f19601f8301169050919050565b7f546f6f206d616e7920746f6b656e730000000000000000000000000000000000600082015250565b7f416c726561647920636c61696d65642072657761726420666f7220746869732060008201527f726f756e64000000000000000000000000000000000000000000000000000000602082015250565b7f6861766520746f2062652077696e6e696e6720636f6c6f720000000000000000600082015250565b7f596f7520646f6e2774206f776e2079656c6c6f77000000000000000000000000600082015250565b7f596f7520646f6e2774206f776e20677265656e00000000000000000000000000600082015250565b7f4e6f742079657420726561647900000000000000000000000000000000000000600082015250565b7f496e73756666696369656e7420616d6f756e7400000000000000000000000000600082015250565b7f6861766520746f20766f74650000000000000000000000000000000000000000600082015250565b7f526f756e64206973206e6f742066696e69736865640000000000000000000000600082015250565b7f5265656e7472616e637947756172643a207265656e7472616e742063616c6c00600082015250565b7f596f7520646f6e2774206f776e20626c75650000000000000000000000000000600082015250565b7f77726f6e6720636f6c6f72000000000000000000000000000000000000000000600082015250565b7f416c7265616479206d696e746564207468697320726f756e6400000000000000600082015250565b7f596f7520646f6e2774206f776e20726564000000000000000000000000000000600082015250565b6132a681612e89565b81146132b157600080fd5b50565b6132bd81612e9b565b81146132c857600080fd5b50565b6132d481612ed9565b81146132df57600080fd5b5056fea26469706673582212203bee2a5264507aea27b6898626ac661303baac25f71d95a13fff2e6c49b1e5b864736f6c63430008040033608060405234801561001057600080fd5b5061002d61002261003260201b60201c565b61003a60201b60201c565b6100fe565b600033905090565b60008060009054906101000a900473ffffffffffffffffffffffffffffffffffffffff169050816000806101000a81548173ffffffffffffffffffffffffffffffffffffffff021916908373ffffffffffffffffffffffffffffffffffffffff1602179055508173ffffffffffffffffffffffffffffffffffffffff168173ffffffffffffffffffffffffffffffffffffffff167f8be0079c531659141344cd1fd0a4f28419497f9722a3daafe3b4186f6b6457e060405160405180910390a35050565b610bfc8061010d6000396000f3fe6080604052600436106100555760003560e01c806351cff8d91461005a578063715018a6146100835780638da5cb5b1461009a578063e3a9db1a146100c5578063f2fde38b14610102578063f340fa011461012b575b600080fd5b34801561006657600080fd5b50610081600480360381019061007c91906107f5565b610147565b005b34801561008f57600080fd5b506100986102c7565b005b3480156100a657600080fd5b506100af61034f565b6040516100bc9190610900565b60405180910390f35b3480156100d157600080fd5b506100ec60048036038101906100e791906107cc565b610378565b6040516100f9919061099b565b60405180910390f35b34801561010e57600080fd5b50610129600480360381019061012491906107cc565b6103c1565b005b610145600480360381019061014091906107cc565b6104b9565b005b61014f6105e2565b73ffffffffffffffffffffffffffffffffffffffff1661016d61034f565b73ffffffffffffffffffffffffffffffffffffffff16146101c3576040517f08c379a00000000000000000000000000000000000000000000000000000000081526004016101ba9061097b565b60405180910390fd5b6000600160008373ffffffffffffffffffffffffffffffffffffffff1673ffffffffffffffffffffffffffffffffffffffff1681526020019081526020016000205490506000600160008473ffffffffffffffffffffffffffffffffffffffff1673ffffffffffffffffffffffffffffffffffffffff16815260200190815260200160002081905550610275818373ffffffffffffffffffffffffffffffffffffffff166105ea90919063ffffffff16565b8173ffffffffffffffffffffffffffffffffffffffff167f7084f5476618d8e60b11ef0d7d3f06914655adb8793e28ff7f018d4c76d505d5826040516102bb919061099b565b60405180910390a25050565b6102cf6105e2565b73ffffffffffffffffffffffffffffffffffffffff166102ed61034f565b73ffffffffffffffffffffffffffffffffffffffff1614610343576040517f08c379a000000000000000000000000000000000000000000000000000000000815260040161033a9061097b565b60405180910390fd5b61034d60006106de565b565b60008060009054906101000a900473ffffffffffffffffffffffffffffffffffffffff16905090565b6000600160008373ffffffffffffffffffffffffffffffffffffffff1673ffffffffffffffffffffffffffffffffffffffff168152602001908152602001600020549050919050565b6103c96105e2565b73ffffffffffffffffffffffffffffffffffffffff166103e761034f565b73ffffffffffffffffffffffffffffffffffffffff161461043d576040517f08c379a00000000000000000000000000000000000000000000000000000000081526004016104349061097b565b60405180910390fd5b600073ffffffffffffffffffffffffffffffffffffffff168173ffffffffffffffffffffffffffffffffffffffff1614156104ad576040517f08c379a00000000000000000000000000000000000000000000000000000000081526004016104a49061091b565b60405180910390fd5b6104b6816106de565b50565b6104c16105e2565b73ffffffffffffffffffffffffffffffffffffffff166104df61034f565b73ffffffffffffffffffffffffffffffffffffffff1614610535576040517f08c379a000000000000000000000000000000000000000000000000000000000815260040161052c9061097b565b60405180910390fd5b600034905080600160008473ffffffffffffffffffffffffffffffffffffffff1673ffffffffffffffffffffffffffffffffffffffff168152602001908152602001600020600082825461058991906109d2565b925050819055508173ffffffffffffffffffffffffffffffffffffffff167f2da466a7b24304f47e87fa2e1e5a81b9831ce54fec19055ce277ca2f39ba42c4826040516105d6919061099b565b60405180910390a25050565b600033905090565b8047101561062d576040517f08c379a00000000000000000000000000000000000000000000000000000000081526004016106249061095b565b60405180910390fd5b60008273ffffffffffffffffffffffffffffffffffffffff1682604051610653906108eb565b60006040518083038185875af1925050503d8060008114610690576040519150601f19603f3d011682016040523d82523d6000602084013e610695565b606091505b50509050806106d9576040517f08c379a00000000000000000000000000000000000000000000000000000000081526004016106d09061093b565b60405180910390fd5b505050565b60008060009054906101000a900473ffffffffffffffffffffffffffffffffffffffff169050816000806101000a81548173ffffffffffffffffffffffffffffffffffffffff021916908373ffffffffffffffffffffffffffffffffffffffff1602179055508173ffffffffffffffffffffffffffffffffffffffff168173ffffffffffffffffffffffffffffffffffffffff167f8be0079c531659141344cd1fd0a4f28419497f9722a3daafe3b4186f6b6457e060405160405180910390a35050565b6000813590506107b181610b98565b92915050565b6000813590506107c681610baf565b92915050565b6000602082840312156107de57600080fd5b60006107ec848285016107a2565b91505092915050565b60006020828403121561080757600080fd5b6000610815848285016107b7565b91505092915050565b61082781610a28565b82525050565b600061083a6026836109c1565b915061084582610aa5565b604082019050919050565b600061085d603a836109c1565b915061086882610af4565b604082019050919050565b6000610880601d836109c1565b915061088b82610b43565b602082019050919050565b60006108a36020836109c1565b91506108ae82610b6c565b602082019050919050565b60006108c66000836109b6565b91506108d182610b95565b600082019050919050565b6108e581610a6c565b82525050565b60006108f6826108b9565b9150819050919050565b6000602082019050610915600083018461081e565b92915050565b600060208201905081810360008301526109348161082d565b9050919050565b6000602082019050818103600083015261095481610850565b9050919050565b6000602082019050818103600083015261097481610873565b9050919050565b6000602082019050818103600083015261099481610896565b9050919050565b60006020820190506109b060008301846108dc565b92915050565b600081905092915050565b600082825260208201905092915050565b60006109dd82610a6c565b91506109e883610a6c565b9250827fffffffffffffffffffffffffffffffffffffffffffffffffffffffffffffffff03821115610a1d57610a1c610a76565b5b828201905092915050565b6000610a3382610a4c565b9050919050565b6000610a4582610a4c565b9050919050565b600073ffffffffffffffffffffffffffffffffffffffff82169050919050565b6000819050919050565b7f4e487b7100000000000000000000000000000000000000000000000000000000600052601160045260246000fd5b7f4f776e61626c653a206e6577206f776e657220697320746865207a65726f206160008201527f6464726573730000000000000000000000000000000000000000000000000000602082015250565b7f416464726573733a20756e61626c6520746f2073656e642076616c75652c207260008201527f6563697069656e74206d61792068617665207265766572746564000000000000602082015250565b7f416464726573733a20696e73756666696369656e742062616c616e6365000000600082015250565b7f4f776e61626c653a2063616c6c6572206973206e6f7420746865206f776e6572600082015250565b50565b610ba181610a28565b8114610bac57600080fd5b50565b610bb881610a3a565b8114610bc357600080fd5b5056fea2646970667358221220b2a6db4c00e57e7ef608d5e81a53c60e6688cd2b85172cc39bb6858c6c6988ec64736f6c63430008040033",
  "linkReferences": {},
  "deployedLinkReferences": {}
}