{
  "_format": "hh-sol-artifact-1",
  "contractName": "GameLogic",
  "sourceName": "contracts/GameLogic.sol",
  "abi": [
    {
      "inputs": [
        {
          "internalType": "address",
          "name": "_red",
          "type": "address"
        },
        {
          "internalType": "address",
          "name": "_blue",
          "type": "address"
        },
        {
          "internalType": "address",
          "name": "_green",
          "type": "address"
        },
        {
          "internalType": "address",
          "name": "_yellow",
          "type": "address"
        }
      ],
      "stateMutability": "nonpayable",
      "type": "constructor"
    },
    {
      "anonymous": false,
      "inputs": [
        {
          "indexed": false,
          "internalType": "address",
          "name": "voter",
          "type": "address"
        },
        {
          "indexed": false,
          "internalType": "uint256",
          "name": "price",
          "type": "uint256"
        },
        {
          "indexed": false,
          "internalType": "uint256",
          "name": "roundNumber",
          "type": "uint256"
        },
        {
          "indexed": false,
          "internalType": "uint256",
          "name": "color",
          "type": "uint256"
        }
      ],
      "name": "Voted",
      "type": "event"
    },
    {
      "inputs": [],
      "name": "blue",
      "outputs": [
        {
          "internalType": "uint256",
          "name": "mintPrice",
          "type": "uint256"
        },
        {
          "internalType": "uint256",
          "name": "oldSupply",
          "type": "uint256"
        },
        {
          "internalType": "uint256",
          "name": "color",
          "type": "uint256"
        }
      ],
      "stateMutability": "view",
      "type": "function"
    },
    {
      "inputs": [],
      "name": "blueContract",
      "outputs": [
        {
          "internalType": "contract IBlue",
          "name": "",
          "type": "address"
        }
      ],
      "stateMutability": "view",
      "type": "function"
    },
    {
      "inputs": [],
      "name": "claimReward",
      "outputs": [],
      "stateMutability": "payable",
      "type": "function"
    },
    {
      "inputs": [
        {
          "internalType": "uint256",
          "name": "",
          "type": "uint256"
        }
      ],
      "name": "colorToNFT",
      "outputs": [
        {
          "internalType": "uint256",
          "name": "mintPrice",
          "type": "uint256"
        },
        {
          "internalType": "uint256",
          "name": "oldSupply",
          "type": "uint256"
        },
        {
          "internalType": "uint256",
          "name": "color",
          "type": "uint256"
        }
      ],
      "stateMutability": "view",
      "type": "function"
    },
    {
      "inputs": [],
      "name": "currentRoundPool",
      "outputs": [
        {
          "internalType": "uint256",
          "name": "",
          "type": "uint256"
        }
      ],
      "stateMutability": "view",
      "type": "function"
    },
    {
      "inputs": [],
      "name": "green",
      "outputs": [
        {
          "internalType": "uint256",
          "name": "mintPrice",
          "type": "uint256"
        },
        {
          "internalType": "uint256",
          "name": "oldSupply",
          "type": "uint256"
        },
        {
          "internalType": "uint256",
          "name": "color",
          "type": "uint256"
        }
      ],
      "stateMutability": "view",
      "type": "function"
    },
    {
      "inputs": [],
      "name": "greenContract",
      "outputs": [
        {
          "internalType": "contract IGreen",
          "name": "",
          "type": "address"
        }
      ],
      "stateMutability": "view",
      "type": "function"
    },
    {
      "inputs": [
        {
          "internalType": "uint256[]",
          "name": "tokenIds",
          "type": "uint256[]"
        }
      ],
      "name": "mintSpecialNFT",
      "outputs": [],
      "stateMutability": "nonpayable",
      "type": "function"
    },
    {
      "inputs": [],
      "name": "mintWinner",
      "outputs": [],
      "stateMutability": "payable",
      "type": "function"
    },
    {
      "inputs": [
        {
          "internalType": "address",
          "name": "dest",
          "type": "address"
        }
      ],
      "name": "payments",
      "outputs": [
        {
          "internalType": "uint256",
          "name": "",
          "type": "uint256"
        }
      ],
      "stateMutability": "view",
      "type": "function"
    },
    {
      "inputs": [],
      "name": "red",
      "outputs": [
        {
          "internalType": "uint256",
          "name": "mintPrice",
          "type": "uint256"
        },
        {
          "internalType": "uint256",
          "name": "oldSupply",
          "type": "uint256"
        },
        {
          "internalType": "uint256",
          "name": "color",
          "type": "uint256"
        }
      ],
      "stateMutability": "view",
      "type": "function"
    },
    {
      "inputs": [],
      "name": "redContract",
      "outputs": [
        {
          "internalType": "contract IRed",
          "name": "",
          "type": "address"
        }
      ],
      "stateMutability": "view",
      "type": "function"
    },
    {
      "inputs": [],
      "name": "redeemAll",
      "outputs": [],
      "stateMutability": "nonpayable",
      "type": "function"
    },
    {
      "inputs": [],
      "name": "reset",
      "outputs": [],
      "stateMutability": "nonpayable",
      "type": "function"
    },
    {
      "inputs": [],
      "name": "resetTime",
      "outputs": [
        {
          "internalType": "uint256",
          "name": "",
          "type": "uint256"
        }
      ],
      "stateMutability": "view",
      "type": "function"
    },
    {
      "inputs": [],
      "name": "roundNumber",
      "outputs": [
        {
          "internalType": "uint256",
          "name": "",
          "type": "uint256"
        }
      ],
      "stateMutability": "view",
      "type": "function"
    },
    {
      "inputs": [
        {
          "internalType": "address",
          "name": "",
          "type": "address"
        },
        {
          "internalType": "uint256",
          "name": "",
          "type": "uint256"
        }
      ],
      "name": "roundToVoter",
      "outputs": [
        {
          "internalType": "bool",
          "name": "voted",
          "type": "bool"
        },
        {
          "internalType": "uint256",
          "name": "color",
          "type": "uint256"
        },
        {
          "internalType": "uint256",
          "name": "mintPrice",
          "type": "uint256"
        },
        {
          "internalType": "bool",
          "name": "minted",
          "type": "bool"
        },
        {
          "internalType": "bool",
          "name": "claimedReward",
          "type": "bool"
        }
      ],
      "stateMutability": "view",
      "type": "function"
    },
    {
      "inputs": [],
      "name": "sidePotPool",
      "outputs": [
        {
          "internalType": "address",
          "name": "",
          "type": "address"
        }
      ],
      "stateMutability": "view",
      "type": "function"
    },
    {
      "inputs": [],
      "name": "specialNFTContract",
      "outputs": [
        {
          "internalType": "contract ISpecialNFT",
          "name": "",
          "type": "address"
        }
      ],
      "stateMutability": "view",
      "type": "function"
    },
    {
      "inputs": [
        {
          "internalType": "uint256",
          "name": "_color",
          "type": "uint256"
        }
      ],
      "name": "voteForColor",
      "outputs": [],
      "stateMutability": "payable",
      "type": "function"
    },
    {
      "inputs": [],
      "name": "votersInRound",
      "outputs": [
        {
          "internalType": "uint256",
          "name": "",
          "type": "uint256"
        }
      ],
      "stateMutability": "view",
      "type": "function"
    },
    {
      "inputs": [],
      "name": "winningColor",
      "outputs": [
        {
          "internalType": "uint256",
          "name": "",
          "type": "uint256"
        }
      ],
      "stateMutability": "view",
      "type": "function"
    },
    {
      "inputs": [],
      "name": "winningRound",
      "outputs": [
        {
          "internalType": "uint256",
          "name": "",
          "type": "uint256"
        }
      ],
      "stateMutability": "view",
      "type": "function"
    },
    {
      "inputs": [],
      "name": "winningStatus",
      "outputs": [
        {
          "internalType": "bool",
          "name": "",
          "type": "bool"
        }
      ],
      "stateMutability": "view",
      "type": "function"
    },
    {
      "inputs": [
        {
          "internalType": "address payable",
          "name": "payee",
          "type": "address"
        }
      ],
      "name": "withdrawPayments",
      "outputs": [],
      "stateMutability": "nonpayable",
      "type": "function"
    },
    {
      "inputs": [],
      "name": "yellow",
      "outputs": [
        {
          "internalType": "uint256",
          "name": "mintPrice",
          "type": "uint256"
        },
        {
          "internalType": "uint256",
          "name": "oldSupply",
          "type": "uint256"
        },
        {
          "internalType": "uint256",
          "name": "color",
          "type": "uint256"
        }
      ],
      "stateMutability": "view",
      "type": "function"
    },
    {
      "inputs": [],
      "name": "yellowContract",
      "outputs": [
        {
          "internalType": "contract IYellow",
          "name": "",
          "type": "address"
        }
      ],
      "stateMutability": "view",
      "type": "function"
    }
  ],
  "bytecode": "0x60a06040526000600155604051806060016040528067016345785d8a00008152602001600081526020016001815250600b6000820151816000015560208201518160010155604082015181600201555050604051806060016040528067016345785d8a00008152602001600081526020016002815250600e6000820151816000015560208201518160010155604082015181600201555050604051806060016040528067016345785d8a0000815260200160008152602001600381525060116000820151816000015560208201518160010155604082015181600201555050604051806060016040528067016345785d8a00008152602001600081526020016004815250601460008201518160000155602082015181600101556040820151816002015550503480156200013257600080fd5b506040516200439d3803806200439d8339818101604052810190620001589190620003d1565b6040516200016690620003ac565b604051809103906000f08015801562000183573d6000803e3d6000fd5b5073ffffffffffffffffffffffffffffffffffffffff1660808173ffffffffffffffffffffffffffffffffffffffff1660601b81525050600160008190555083601760006101000a81548173ffffffffffffffffffffffffffffffffffffffff021916908373ffffffffffffffffffffffffffffffffffffffff16021790555082601860006101000a81548173ffffffffffffffffffffffffffffffffffffffff021916908373ffffffffffffffffffffffffffffffffffffffff16021790555081601960006101000a81548173ffffffffffffffffffffffffffffffffffffffff021916908373ffffffffffffffffffffffffffffffffffffffff16021790555080601a60006101000a81548173ffffffffffffffffffffffffffffffffffffffff021916908373ffffffffffffffffffffffffffffffffffffffff160217905550600b6009600060018152602001908152602001600020600082015481600001556001820154816001015560028201548160020155905050600e60096000600281526020019081526020016000206000820154816000015560018201548160010155600282015481600201559050506011600960006003815260200190815260200160002060008201548160000155600182015481600101556002820154816002015590505060146009600060048152602001908152602001600020600082015481600001556001820154816001015560028201548160020155905050505050506200048b565b610d09806200369483390190565b600081519050620003cb8162000471565b92915050565b60008060008060808587031215620003e857600080fd5b6000620003f887828801620003ba565b94505060206200040b87828801620003ba565b93505060406200041e87828801620003ba565b92505060606200043187828801620003ba565b91505092959194509250565b60006200044a8262000451565b9050919050565b600073ffffffffffffffffffffffffffffffffffffffff82169050919050565b6200047c816200043d565b81146200048857600080fd5b50565b60805160601c6131dc620004b86000396000818161063c01528181612160015261230801526131dc6000f3fe60806040526004361061019c5760003560e01c8063b345bdfc116100ec578063cbdb2e771161008a578063ed18f0a711610064578063ed18f0a714610541578063f05f4b001461056e578063f2f1e13214610599578063f5fcffb1146105c65761019c565b8063cbdb2e77146104c2578063d826f88f146104ed578063e2982c21146105045761019c565b8063b9f68eb1116100c6578063b9f68eb114610425578063bb9fca171461044e578063be9faf1314610479578063c60deabd146104a65761019c565b8063b345bdfc146103b1578063b88a802f146103f0578063b9ebc2d0146103fa5761019c565b80634c914658116101595780635fdf643d116101335780635fdf643d1461032657806365a114f1146103515780639787fc7f1461037c578063a1f532f6146103865761019c565b80634c914658146102a55780634e2786fb146102d05780634f3516c7146102fb5761019c565b80631dc5ab96146101a15780632930cf24146101cc5780632f4350c2146101f957806331b3eb94146102105780633609fc9f146102395780634949787b1461027a575b600080fd5b3480156101ad57600080fd5b506101b66105f1565b6040516101c3919061286a565b60405180910390f35b3480156101d857600080fd5b506101e1610617565b6040516101f093929190612be5565b60405180910390f35b34801561020557600080fd5b5061020e61062f565b005b34801561021c57600080fd5b50610237600480360381019061023291906124c4565b61063a565b005b34801561024557600080fd5b50610260600480360381019061025b91906124ed565b6106c8565b604051610271959493929190612900565b60405180910390f35b34801561028657600080fd5b5061028f610732565b60405161029c9190612bca565b60405180910390f35b3480156102b157600080fd5b506102ba610738565b6040516102c79190612bca565b60405180910390f35b3480156102dc57600080fd5b506102e561073e565b6040516102f29190612bca565b60405180910390f35b34801561030757600080fd5b50610310610744565b60405161031d9190612bca565b60405180910390f35b34801561033257600080fd5b5061033b61074a565b6040516103489190612989565b60405180910390f35b34801561035d57600080fd5b50610366610770565b6040516103739190612bca565b60405180910390f35b610384610776565b005b34801561039257600080fd5b5061039b610e2d565b6040516103a891906129a4565b60405180910390f35b3480156103bd57600080fd5b506103d860048036038101906103d3919061256e565b610e53565b6040516103e793929190612be5565b60405180910390f35b6103f8610e7d565b005b34801561040657600080fd5b5061040f611224565b60405161041c9190612953565b60405180910390f35b34801561043157600080fd5b5061044c60048036038101906104479190612529565b61124a565b005b34801561045a57600080fd5b50610463611bdc565b604051610470919061296e565b60405180910390f35b34801561048557600080fd5b5061048e611c02565b60405161049d93929190612be5565b60405180910390f35b6104c060048036038101906104bb919061256e565b611c1a565b005b3480156104ce57600080fd5b506104d7611ffd565b6040516104e491906128e5565b60405180910390f35b3480156104f957600080fd5b50610502612010565b005b34801561051057600080fd5b5061052b60048036038101906105269190612472565b61215c565b6040516105389190612bca565b60405180910390f35b34801561054d57600080fd5b5061055661220e565b60405161056593929190612be5565b60405180910390f35b34801561057a57600080fd5b50610583612226565b6040516105909190612bca565b60405180910390f35b3480156105a557600080fd5b506105ae61222c565b6040516105bd93929190612be5565b60405180910390f35b3480156105d257600080fd5b506105db612244565b6040516105e891906129bf565b60405180910390f35b600560009054906101000a900473ffffffffffffffffffffffffffffffffffffffff1681565b600b8060000154908060010154908060020154905083565b6106383361063a565b565b7f000000000000000000000000000000000000000000000000000000000000000073ffffffffffffffffffffffffffffffffffffffff166351cff8d9826040518263ffffffff1660e01b81526004016106939190612885565b600060405180830381600087803b1580156106ad57600080fd5b505af11580156106c1573d6000803e3d6000fd5b5050505050565b600a602052816000526040600020602052806000526040600020600091509150508060000160009054906101000a900460ff16908060010154908060020154908060030160009054906101000a900460ff16908060030160019054906101000a900460ff16905085565b60025481565b60045481565b60015481565b60075481565b601760009054906101000a900473ffffffffffffffffffffffffffffffffffffffff1681565b60065481565b600260005414156107bc576040517f08c379a00000000000000000000000000000000000000000000000000000000081526004016107b390612b2a565b60405180910390fd5b600260008190555060011515600a60003373ffffffffffffffffffffffffffffffffffffffff1673ffffffffffffffffffffffffffffffffffffffff1681526020019081526020016000206000600354815260200190815260200160002060000160009054906101000a900460ff1615151461086d576040517f08c379a000000000000000000000000000000000000000000000000000000000815260040161086490612aea565b60405180910390fd5b600254600a60003373ffffffffffffffffffffffffffffffffffffffff1673ffffffffffffffffffffffffffffffffffffffff168152602001908152602001600020600060035481526020019081526020016000206001015414610906576040517f08c379a00000000000000000000000000000000000000000000000000000000081526004016108fd90612a4a565b60405180910390fd5b60001515600a60003373ffffffffffffffffffffffffffffffffffffffff1673ffffffffffffffffffffffffffffffffffffffff1681526020019081526020016000206000600354815260200190815260200160002060030160019054906101000a900460ff161515146109af576040517f08c379a00000000000000000000000000000000000000000000000000000000081526004016109a690612a2a565b60405180910390fd5b60001515600a60003373ffffffffffffffffffffffffffffffffffffffff1673ffffffffffffffffffffffffffffffffffffffff1681526020019081526020016000206000600354815260200190815260200160002060030160009054906101000a900460ff16151514610a58576040517f08c379a0000000000000000000000000000000000000000000000000000000008152600401610a4f90612b8a565b60405180910390fd5b6001600a60003373ffffffffffffffffffffffffffffffffffffffff1673ffffffffffffffffffffffffffffffffffffffff168152602001908152602001600020600060035481526020019081526020016000206001015414610d27576002600a60003373ffffffffffffffffffffffffffffffffffffffff1673ffffffffffffffffffffffffffffffffffffffff168152602001908152602001600020600060035481526020019081526020016000206001015414610c94576003600a60003373ffffffffffffffffffffffffffffffffffffffff1673ffffffffffffffffffffffffffffffffffffffff168152602001908152602001600020600060035481526020019081526020016000206001015414610c0157601a60009054906101000a900473ffffffffffffffffffffffffffffffffffffffff1673ffffffffffffffffffffffffffffffffffffffff16634894d393336040518263ffffffff1660e01b8152600401610bca919061286a565b600060405180830381600087803b158015610be457600080fd5b505af1158015610bf8573d6000803e3d6000fd5b50505050610c8f565b601960009054906101000a900473ffffffffffffffffffffffffffffffffffffffff1673ffffffffffffffffffffffffffffffffffffffff16634894d393336040518263ffffffff1660e01b8152600401610c5c919061286a565b600060405180830381600087803b158015610c7657600080fd5b505af1158015610c8a573d6000803e3d6000fd5b505050505b610d22565b601860009054906101000a900473ffffffffffffffffffffffffffffffffffffffff1673ffffffffffffffffffffffffffffffffffffffff16634894d393336040518263ffffffff1660e01b8152600401610cef919061286a565b600060405180830381600087803b158015610d0957600080fd5b505af1158015610d1d573d6000803e3d6000fd5b505050505b610db5565b601760009054906101000a900473ffffffffffffffffffffffffffffffffffffffff1673ffffffffffffffffffffffffffffffffffffffff16634894d393336040518263ffffffff1660e01b8152600401610d82919061286a565b600060405180830381600087803b158015610d9c57600080fd5b505af1158015610db0573d6000803e3d6000fd5b505050505b6001600a60003373ffffffffffffffffffffffffffffffffffffffff1673ffffffffffffffffffffffffffffffffffffffff1681526020019081526020016000206000600354815260200190815260200160002060030160006101000a81548160ff0219169083151502179055506001600081905550565b601b60009054906101000a900473ffffffffffffffffffffffffffffffffffffffff1681565b60096020528060005260406000206000915090508060000154908060010154908060020154905083565b60026000541415610ec3576040517f08c379a0000000000000000000000000000000000000000000000000000000008152600401610eba90612b2a565b60405180910390fd5b600260008190555060011515600a60003373ffffffffffffffffffffffffffffffffffffffff1673ffffffffffffffffffffffffffffffffffffffff1681526020019081526020016000206000600354815260200190815260200160002060000160009054906101000a900460ff16151514610f74576040517f08c379a0000000000000000000000000000000000000000000000000000000008152600401610f6b90612aea565b60405180910390fd5b60001515600a60003373ffffffffffffffffffffffffffffffffffffffff1673ffffffffffffffffffffffffffffffffffffffff1681526020019081526020016000206000600354815260200190815260200160002060030160019054906101000a900460ff1615151461101d576040517f08c379a000000000000000000000000000000000000000000000000000000000815260040161101490612a2a565b60405180910390fd5b61105e6040518060400160405280601181526020017f63757272656e74526f756e64506f6f6c2000000000000000000000000000000081525060045461226a565b61109f6040518060400160405280600e81526020017f766f74657273496e526f756e642000000000000000000000000000000000000081525060075461226a565b6111116040518060400160405280600781526020017f616d6f756e742000000000000000000000000000000000000000000000000000815250600a806007546004546110eb9190612c8e565b6110f59190612cbf565b6004546111029190612d19565b61110c9190612c8e565b61226a565b61114e33600a806007546004546111289190612c8e565b6111329190612cbf565b60045461113f9190612d19565b6111499190612c8e565b612306565b61115661062f565b6111ac6040518060400160405280601781526020017f62616c616e63652061667465722072656465656d416c6c0000000000000000008152503373ffffffffffffffffffffffffffffffffffffffff163161226a565b6001600a60003373ffffffffffffffffffffffffffffffffffffffff1673ffffffffffffffffffffffffffffffffffffffff1681526020019081526020016000206000600354815260200190815260200160002060030160016101000a81548160ff0219169083151502179055506001600081905550565b601860009054906101000a900473ffffffffffffffffffffffffffffffffffffffff1681565b60008282905090506004811115611296576040517f08c379a000000000000000000000000000000000000000000000000000000000815260040161128d90612a0a565b60405180910390fd5b6000601760009054906101000a900473ffffffffffffffffffffffffffffffffffffffff1673ffffffffffffffffffffffffffffffffffffffff16636352211e85856000818110611310577f4e487b7100000000000000000000000000000000000000000000000000000000600052603260045260246000fd5b905060200201356040518263ffffffff1660e01b81526004016113339190612bca565b602060405180830381600087803b15801561134d57600080fd5b505af1158015611361573d6000803e3d6000fd5b505050506040513d601f19601f82011682018060405250810190611385919061249b565b90506000601860009054906101000a900473ffffffffffffffffffffffffffffffffffffffff1673ffffffffffffffffffffffffffffffffffffffff16636352211e86866001818110611401577f4e487b7100000000000000000000000000000000000000000000000000000000600052603260045260246000fd5b905060200201356040518263ffffffff1660e01b81526004016114249190612bca565b602060405180830381600087803b15801561143e57600080fd5b505af1158015611452573d6000803e3d6000fd5b505050506040513d601f19601f82011682018060405250810190611476919061249b565b90506000601960009054906101000a900473ffffffffffffffffffffffffffffffffffffffff1673ffffffffffffffffffffffffffffffffffffffff16636352211e878760028181106114f2577f4e487b7100000000000000000000000000000000000000000000000000000000600052603260045260246000fd5b905060200201356040518263ffffffff1660e01b81526004016115159190612bca565b602060405180830381600087803b15801561152f57600080fd5b505af1158015611543573d6000803e3d6000fd5b505050506040513d601f19601f82011682018060405250810190611567919061249b565b90506000601a60009054906101000a900473ffffffffffffffffffffffffffffffffffffffff1673ffffffffffffffffffffffffffffffffffffffff16636352211e888860038181106115e3577f4e487b7100000000000000000000000000000000000000000000000000000000600052603260045260246000fd5b905060200201356040518263ffffffff1660e01b81526004016116069190612bca565b602060405180830381600087803b15801561162057600080fd5b505af1158015611634573d6000803e3d6000fd5b505050506040513d601f19601f82011682018060405250810190611658919061249b565b90508373ffffffffffffffffffffffffffffffffffffffff163373ffffffffffffffffffffffffffffffffffffffff16146116c8576040517f08c379a00000000000000000000000000000000000000000000000000000000081526004016116bf90612baa565b60405180910390fd5b8273ffffffffffffffffffffffffffffffffffffffff163373ffffffffffffffffffffffffffffffffffffffff1614611736576040517f08c379a000000000000000000000000000000000000000000000000000000000815260040161172d90612b4a565b60405180910390fd5b8173ffffffffffffffffffffffffffffffffffffffff163373ffffffffffffffffffffffffffffffffffffffff16146117a4576040517f08c379a000000000000000000000000000000000000000000000000000000000815260040161179b90612a8a565b60405180910390fd5b8073ffffffffffffffffffffffffffffffffffffffff163373ffffffffffffffffffffffffffffffffffffffff1614611812576040517f08c379a000000000000000000000000000000000000000000000000000000000815260040161180990612a6a565b60405180910390fd5b601760009054906101000a900473ffffffffffffffffffffffffffffffffffffffff1673ffffffffffffffffffffffffffffffffffffffff166342966c688888600081811061188a577f4e487b7100000000000000000000000000000000000000000000000000000000600052603260045260246000fd5b905060200201356040518263ffffffff1660e01b81526004016118ad9190612bca565b600060405180830381600087803b1580156118c757600080fd5b505af11580156118db573d6000803e3d6000fd5b50505050601860009054906101000a900473ffffffffffffffffffffffffffffffffffffffff1673ffffffffffffffffffffffffffffffffffffffff166342966c6888886001818110611957577f4e487b7100000000000000000000000000000000000000000000000000000000600052603260045260246000fd5b905060200201356040518263ffffffff1660e01b815260040161197a9190612bca565b600060405180830381600087803b15801561199457600080fd5b505af11580156119a8573d6000803e3d6000fd5b50505050601960009054906101000a900473ffffffffffffffffffffffffffffffffffffffff1673ffffffffffffffffffffffffffffffffffffffff166342966c6888886002818110611a24577f4e487b7100000000000000000000000000000000000000000000000000000000600052603260045260246000fd5b905060200201356040518263ffffffff1660e01b8152600401611a479190612bca565b600060405180830381600087803b158015611a6157600080fd5b505af1158015611a75573d6000803e3d6000fd5b50505050601a60009054906101000a900473ffffffffffffffffffffffffffffffffffffffff1673ffffffffffffffffffffffffffffffffffffffff166342966c6888886003818110611af1577f4e487b7100000000000000000000000000000000000000000000000000000000600052603260045260246000fd5b905060200201356040518263ffffffff1660e01b8152600401611b149190612bca565b600060405180830381600087803b158015611b2e57600080fd5b505af1158015611b42573d6000803e3d6000fd5b50505050601b60009054906101000a900473ffffffffffffffffffffffffffffffffffffffff1673ffffffffffffffffffffffffffffffffffffffff16634894d393336040518263ffffffff1660e01b8152600401611ba1919061286a565b600060405180830381600087803b158015611bbb57600080fd5b505af1158015611bcf573d6000803e3d6000fd5b5050505050505050505050565b601960009054906101000a900473ffffffffffffffffffffffffffffffffffffffff1681565b60148060000154908060010154908060020154905083565b6000600960008381526020019081526020016000209050600080826001015411611c48578160000154611c69565b60058260000154611c599190612c8e565b8260000154611c689190612c38565b5b9050803414611cad576040517f08c379a0000000000000000000000000000000000000000000000000000000008152600401611ca490612aca565b60405180910390fd5b60018310158015611cbf575060048311155b611cfe576040517f08c379a0000000000000000000000000000000000000000000000000000000008152600401611cf590612b6a565b60405180910390fd5b6001826001016000828254611d139190612c38565b9250508190555082826002018190555082600a60003373ffffffffffffffffffffffffffffffffffffffff1673ffffffffffffffffffffffffffffffffffffffff168152602001908152602001600020600060015481526020019081526020016000206001018190555080600a60003373ffffffffffffffffffffffffffffffffffffffff1673ffffffffffffffffffffffffffffffffffffffff1681526020019081526020016000206000600154815260200190815260200160002060020181905550611e166040518060400160405280600981526020017f50726963652069732000000000000000000000000000000000000000000000008152508261226a565b611e596040518060400160405280600a81526020017f537570706c792069732000000000000000000000000000000000000000000000815250836001015461226a565b611e9a6040518060400160405280601781526020017f537570706c7920726f756e64206e756d6265722069732000000000000000000081525060015461226a565b60006064605a34611eab9190612cbf565b611eb59190612c8e565b9050611ec13382612306565b3460046000828254611ed39190612c38565b92505081905550600a83600101541415611f175760015460038190555082600201546002819055506001600860006101000a81548160ff0219169083151502179055505b6001600a60003373ffffffffffffffffffffffffffffffffffffffff1673ffffffffffffffffffffffffffffffffffffffff1681526020019081526020016000206000600154815260200190815260200160002060000160006101000a81548160ff021916908315150217905550600160076000828254611f989190612c38565b925050819055506201518042611fae9190612c38565b6006819055507fc32b42768a47a585121e9b8d7a2ab9d3f34c326a192dee11ee1732e3d18313f333846000015460015487604051611fef94939291906128a0565b60405180910390a150505050565b600860009054906101000a900460ff1681565b6006544211612054576040517f08c379a000000000000000000000000000000000000000000000000000000000815260040161204b90612aaa565b60405180910390fd5b60011515600860009054906101000a900460ff161515146120aa576040517f08c379a00000000000000000000000000000000000000000000000000000000081526004016120a190612b0a565b60405180910390fd5b600060028190555060018060008282546120c49190612c38565b925050819055506000600b6001018190555067016345785d8a0000600b600001819055506000600e6001018190555067016345785d8a0000600e60000181905550600060146001018190555067016345785d8a0000601460000181905550600060116001018190555067016345785d8a00006011600001819055506000600860006101000a81548160ff021916908315150217905550565b60007f000000000000000000000000000000000000000000000000000000000000000073ffffffffffffffffffffffffffffffffffffffff1663e3a9db1a836040518263ffffffff1660e01b81526004016121b7919061286a565b60206040518083038186803b1580156121cf57600080fd5b505afa1580156121e3573d6000803e3d6000fd5b505050506040513d601f19601f820116820180604052508101906122079190612597565b9050919050565b600e8060000154908060010154908060020154905083565b60035481565b60118060000154908060010154908060020154905083565b601a60009054906101000a900473ffffffffffffffffffffffffffffffffffffffff1681565b61230282826040516024016122809291906129da565b6040516020818303038152906040527f9710a9d0000000000000000000000000000000000000000000000000000000007bffffffffffffffffffffffffffffffffffffffffffffffffffffffff19166020820180517bffffffffffffffffffffffffffffffffffffffffffffffffffffffff8381831617835250505050612396565b5050565b7f000000000000000000000000000000000000000000000000000000000000000073ffffffffffffffffffffffffffffffffffffffff1663f340fa0182846040518363ffffffff1660e01b8152600401612360919061286a565b6000604051808303818588803b15801561237957600080fd5b505af115801561238d573d6000803e3d6000fd5b50505050505050565b60008151905060006a636f6e736f6c652e6c6f679050602083016000808483855afa5050505050565b6000813590506123ce81613161565b92915050565b6000815190506123e381613161565b92915050565b6000813590506123f881613178565b92915050565b60008083601f84011261241057600080fd5b8235905067ffffffffffffffff81111561242957600080fd5b60208301915083602082028301111561244157600080fd5b9250929050565b6000813590506124578161318f565b92915050565b60008151905061246c8161318f565b92915050565b60006020828403121561248457600080fd5b6000612492848285016123bf565b91505092915050565b6000602082840312156124ad57600080fd5b60006124bb848285016123d4565b91505092915050565b6000602082840312156124d657600080fd5b60006124e4848285016123e9565b91505092915050565b6000806040838503121561250057600080fd5b600061250e858286016123bf565b925050602061251f85828601612448565b9150509250929050565b6000806020838503121561253c57600080fd5b600083013567ffffffffffffffff81111561255657600080fd5b612562858286016123fe565b92509250509250929050565b60006020828403121561258057600080fd5b600061258e84828501612448565b91505092915050565b6000602082840312156125a957600080fd5b60006125b78482850161245d565b91505092915050565b6125c981612d5f565b82525050565b6125d881612d4d565b82525050565b6125e781612d71565b82525050565b6125f681612da7565b82525050565b61260581612dcb565b82525050565b61261481612def565b82525050565b61262381612e13565b82525050565b61263281612e37565b82525050565b600061264382612c1c565b61264d8185612c27565b935061265d818560208601612e5b565b61266681612eec565b840191505092915050565b600061267e600f83612c27565b915061268982612efd565b602082019050919050565b60006126a1602583612c27565b91506126ac82612f26565b604082019050919050565b60006126c4601883612c27565b91506126cf82612f75565b602082019050919050565b60006126e7601483612c27565b91506126f282612f9e565b602082019050919050565b600061270a601383612c27565b915061271582612fc7565b602082019050919050565b600061272d600d83612c27565b915061273882612ff0565b602082019050919050565b6000612750601383612c27565b915061275b82613019565b602082019050919050565b6000612773600c83612c27565b915061277e82613042565b602082019050919050565b6000612796601583612c27565b91506127a18261306b565b602082019050919050565b60006127b9601f83612c27565b91506127c482613094565b602082019050919050565b60006127dc601283612c27565b91506127e7826130bd565b602082019050919050565b60006127ff600b83612c27565b915061280a826130e6565b602082019050919050565b6000612822601983612c27565b915061282d8261310f565b602082019050919050565b6000612845601183612c27565b915061285082613138565b602082019050919050565b61286481612d9d565b82525050565b600060208201905061287f60008301846125cf565b92915050565b600060208201905061289a60008301846125c0565b92915050565b60006080820190506128b560008301876125cf565b6128c2602083018661285b565b6128cf604083018561285b565b6128dc606083018461285b565b95945050505050565b60006020820190506128fa60008301846125de565b92915050565b600060a08201905061291560008301886125de565b612922602083018761285b565b61292f604083018661285b565b61293c60608301856125de565b61294960808301846125de565b9695505050505050565b600060208201905061296860008301846125ed565b92915050565b600060208201905061298360008301846125fc565b92915050565b600060208201905061299e600083018461260b565b92915050565b60006020820190506129b9600083018461261a565b92915050565b60006020820190506129d46000830184612629565b92915050565b600060408201905081810360008301526129f48185612638565b9050612a03602083018461285b565b9392505050565b60006020820190508181036000830152612a2381612671565b9050919050565b60006020820190508181036000830152612a4381612694565b9050919050565b60006020820190508181036000830152612a63816126b7565b9050919050565b60006020820190508181036000830152612a83816126da565b9050919050565b60006020820190508181036000830152612aa3816126fd565b9050919050565b60006020820190508181036000830152612ac381612720565b9050919050565b60006020820190508181036000830152612ae381612743565b9050919050565b60006020820190508181036000830152612b0381612766565b9050919050565b60006020820190508181036000830152612b2381612789565b9050919050565b60006020820190508181036000830152612b43816127ac565b9050919050565b60006020820190508181036000830152612b63816127cf565b9050919050565b60006020820190508181036000830152612b83816127f2565b9050919050565b60006020820190508181036000830152612ba381612815565b9050919050565b60006020820190508181036000830152612bc381612838565b9050919050565b6000602082019050612bdf600083018461285b565b92915050565b6000606082019050612bfa600083018661285b565b612c07602083018561285b565b612c14604083018461285b565b949350505050565b600081519050919050565b600082825260208201905092915050565b6000612c4382612d9d565b9150612c4e83612d9d565b9250827fffffffffffffffffffffffffffffffffffffffffffffffffffffffffffffffff03821115612c8357612c82612e8e565b5b828201905092915050565b6000612c9982612d9d565b9150612ca483612d9d565b925082612cb457612cb3612ebd565b5b828204905092915050565b6000612cca82612d9d565b9150612cd583612d9d565b9250817fffffffffffffffffffffffffffffffffffffffffffffffffffffffffffffffff0483118215151615612d0e57612d0d612e8e565b5b828202905092915050565b6000612d2482612d9d565b9150612d2f83612d9d565b925082821015612d4257612d41612e8e565b5b828203905092915050565b6000612d5882612d7d565b9050919050565b6000612d6a82612d7d565b9050919050565b60008115159050919050565b600073ffffffffffffffffffffffffffffffffffffffff82169050919050565b6000819050919050565b6000612db282612db9565b9050919050565b6000612dc482612d7d565b9050919050565b6000612dd682612ddd565b9050919050565b6000612de882612d7d565b9050919050565b6000612dfa82612e01565b9050919050565b6000612e0c82612d7d565b9050919050565b6000612e1e82612e25565b9050919050565b6000612e3082612d7d565b9050919050565b6000612e4282612e49565b9050919050565b6000612e5482612d7d565b9050919050565b60005b83811015612e79578082015181840152602081019050612e5e565b83811115612e88576000848401525b50505050565b7f4e487b7100000000000000000000000000000000000000000000000000000000600052601160045260246000fd5b7f4e487b7100000000000000000000000000000000000000000000000000000000600052601260045260246000fd5b6000601f19601f8301169050919050565b7f546f6f206d616e7920746f6b656e730000000000000000000000000000000000600082015250565b7f416c726561647920636c61696d65642072657761726420666f7220746869732060008201527f726f756e64000000000000000000000000000000000000000000000000000000602082015250565b7f6861766520746f2062652077696e6e696e6720636f6c6f720000000000000000600082015250565b7f596f7520646f6e2774206f776e2079656c6c6f77000000000000000000000000600082015250565b7f596f7520646f6e2774206f776e20677265656e00000000000000000000000000600082015250565b7f4e6f742079657420726561647900000000000000000000000000000000000000600082015250565b7f496e73756666696369656e7420616d6f756e7400000000000000000000000000600082015250565b7f6861766520746f20766f74650000000000000000000000000000000000000000600082015250565b7f526f756e64206973206e6f742066696e69736865640000000000000000000000600082015250565b7f5265656e7472616e637947756172643a207265656e7472616e742063616c6c00600082015250565b7f596f7520646f6e2774206f776e20626c75650000000000000000000000000000600082015250565b7f77726f6e6720636f6c6f72000000000000000000000000000000000000000000600082015250565b7f416c7265616479206d696e746564207468697320726f756e6400000000000000600082015250565b7f596f7520646f6e2774206f776e20726564000000000000000000000000000000600082015250565b61316a81612d4d565b811461317557600080fd5b50565b61318181612d5f565b811461318c57600080fd5b50565b61319881612d9d565b81146131a357600080fd5b5056fea26469706673582212209585093b8f154e1e97e3d8ce1c5c154aff23873ee703f789d77b38a1602cbf2464736f6c63430008040033608060405234801561001057600080fd5b5061002d61002261003260201b60201c565b61003a60201b60201c565b6100fe565b600033905090565b60008060009054906101000a900473ffffffffffffffffffffffffffffffffffffffff169050816000806101000a81548173ffffffffffffffffffffffffffffffffffffffff021916908373ffffffffffffffffffffffffffffffffffffffff1602179055508173ffffffffffffffffffffffffffffffffffffffff168173ffffffffffffffffffffffffffffffffffffffff167f8be0079c531659141344cd1fd0a4f28419497f9722a3daafe3b4186f6b6457e060405160405180910390a35050565b610bfc8061010d6000396000f3fe6080604052600436106100555760003560e01c806351cff8d91461005a578063715018a6146100835780638da5cb5b1461009a578063e3a9db1a146100c5578063f2fde38b14610102578063f340fa011461012b575b600080fd5b34801561006657600080fd5b50610081600480360381019061007c91906107f5565b610147565b005b34801561008f57600080fd5b506100986102c7565b005b3480156100a657600080fd5b506100af61034f565b6040516100bc9190610900565b60405180910390f35b3480156100d157600080fd5b506100ec60048036038101906100e791906107cc565b610378565b6040516100f9919061099b565b60405180910390f35b34801561010e57600080fd5b50610129600480360381019061012491906107cc565b6103c1565b005b610145600480360381019061014091906107cc565b6104b9565b005b61014f6105e2565b73ffffffffffffffffffffffffffffffffffffffff1661016d61034f565b73ffffffffffffffffffffffffffffffffffffffff16146101c3576040517f08c379a00000000000000000000000000000000000000000000000000000000081526004016101ba9061097b565b60405180910390fd5b6000600160008373ffffffffffffffffffffffffffffffffffffffff1673ffffffffffffffffffffffffffffffffffffffff1681526020019081526020016000205490506000600160008473ffffffffffffffffffffffffffffffffffffffff1673ffffffffffffffffffffffffffffffffffffffff16815260200190815260200160002081905550610275818373ffffffffffffffffffffffffffffffffffffffff166105ea90919063ffffffff16565b8173ffffffffffffffffffffffffffffffffffffffff167f7084f5476618d8e60b11ef0d7d3f06914655adb8793e28ff7f018d4c76d505d5826040516102bb919061099b565b60405180910390a25050565b6102cf6105e2565b73ffffffffffffffffffffffffffffffffffffffff166102ed61034f565b73ffffffffffffffffffffffffffffffffffffffff1614610343576040517f08c379a000000000000000000000000000000000000000000000000000000000815260040161033a9061097b565b60405180910390fd5b61034d60006106de565b565b60008060009054906101000a900473ffffffffffffffffffffffffffffffffffffffff16905090565b6000600160008373ffffffffffffffffffffffffffffffffffffffff1673ffffffffffffffffffffffffffffffffffffffff168152602001908152602001600020549050919050565b6103c96105e2565b73ffffffffffffffffffffffffffffffffffffffff166103e761034f565b73ffffffffffffffffffffffffffffffffffffffff161461043d576040517f08c379a00000000000000000000000000000000000000000000000000000000081526004016104349061097b565b60405180910390fd5b600073ffffffffffffffffffffffffffffffffffffffff168173ffffffffffffffffffffffffffffffffffffffff1614156104ad576040517f08c379a00000000000000000000000000000000000000000000000000000000081526004016104a49061091b565b60405180910390fd5b6104b6816106de565b50565b6104c16105e2565b73ffffffffffffffffffffffffffffffffffffffff166104df61034f565b73ffffffffffffffffffffffffffffffffffffffff1614610535576040517f08c379a000000000000000000000000000000000000000000000000000000000815260040161052c9061097b565b60405180910390fd5b600034905080600160008473ffffffffffffffffffffffffffffffffffffffff1673ffffffffffffffffffffffffffffffffffffffff168152602001908152602001600020600082825461058991906109d2565b925050819055508173ffffffffffffffffffffffffffffffffffffffff167f2da466a7b24304f47e87fa2e1e5a81b9831ce54fec19055ce277ca2f39ba42c4826040516105d6919061099b565b60405180910390a25050565b600033905090565b8047101561062d576040517f08c379a00000000000000000000000000000000000000000000000000000000081526004016106249061095b565b60405180910390fd5b60008273ffffffffffffffffffffffffffffffffffffffff1682604051610653906108eb565b60006040518083038185875af1925050503d8060008114610690576040519150601f19603f3d011682016040523d82523d6000602084013e610695565b606091505b50509050806106d9576040517f08c379a00000000000000000000000000000000000000000000000000000000081526004016106d09061093b565b60405180910390fd5b505050565b60008060009054906101000a900473ffffffffffffffffffffffffffffffffffffffff169050816000806101000a81548173ffffffffffffffffffffffffffffffffffffffff021916908373ffffffffffffffffffffffffffffffffffffffff1602179055508173ffffffffffffffffffffffffffffffffffffffff168173ffffffffffffffffffffffffffffffffffffffff167f8be0079c531659141344cd1fd0a4f28419497f9722a3daafe3b4186f6b6457e060405160405180910390a35050565b6000813590506107b181610b98565b92915050565b6000813590506107c681610baf565b92915050565b6000602082840312156107de57600080fd5b60006107ec848285016107a2565b91505092915050565b60006020828403121561080757600080fd5b6000610815848285016107b7565b91505092915050565b61082781610a28565b82525050565b600061083a6026836109c1565b915061084582610aa5565b604082019050919050565b600061085d603a836109c1565b915061086882610af4565b604082019050919050565b6000610880601d836109c1565b915061088b82610b43565b602082019050919050565b60006108a36020836109c1565b91506108ae82610b6c565b602082019050919050565b60006108c66000836109b6565b91506108d182610b95565b600082019050919050565b6108e581610a6c565b82525050565b60006108f6826108b9565b9150819050919050565b6000602082019050610915600083018461081e565b92915050565b600060208201905081810360008301526109348161082d565b9050919050565b6000602082019050818103600083015261095481610850565b9050919050565b6000602082019050818103600083015261097481610873565b9050919050565b6000602082019050818103600083015261099481610896565b9050919050565b60006020820190506109b060008301846108dc565b92915050565b600081905092915050565b600082825260208201905092915050565b60006109dd82610a6c565b91506109e883610a6c565b9250827fffffffffffffffffffffffffffffffffffffffffffffffffffffffffffffffff03821115610a1d57610a1c610a76565b5b828201905092915050565b6000610a3382610a4c565b9050919050565b6000610a4582610a4c565b9050919050565b600073ffffffffffffffffffffffffffffffffffffffff82169050919050565b6000819050919050565b7f4e487b7100000000000000000000000000000000000000000000000000000000600052601160045260246000fd5b7f4f776e61626c653a206e6577206f776e657220697320746865207a65726f206160008201527f6464726573730000000000000000000000000000000000000000000000000000602082015250565b7f416464726573733a20756e61626c6520746f2073656e642076616c75652c207260008201527f6563697069656e74206d61792068617665207265766572746564000000000000602082015250565b7f416464726573733a20696e73756666696369656e742062616c616e6365000000600082015250565b7f4f776e61626c653a2063616c6c6572206973206e6f7420746865206f776e6572600082015250565b50565b610ba181610a28565b8114610bac57600080fd5b50565b610bb881610a3a565b8114610bc357600080fd5b5056fea2646970667358221220b2a6db4c00e57e7ef608d5e81a53c60e6688cd2b85172cc39bb6858c6c6988ec64736f6c63430008040033",
  "linkReferences": {},
  "deployedLinkReferences": {}
}