{
  "_format": "hh-sol-artifact-1",
  "contractName": "GameLogic",
  "sourceName": "contracts/GameLogic.sol",
  "abi": [
    {
      "inputs": [
        {
          "internalType": "address",
          "name": "_red",
          "type": "address"
        },
        {
          "internalType": "address",
          "name": "_blue",
          "type": "address"
        },
        {
          "internalType": "address",
          "name": "_green",
          "type": "address"
        },
        {
          "internalType": "address",
          "name": "_yellow",
          "type": "address"
        }
      ],
      "stateMutability": "nonpayable",
      "type": "constructor"
    },
    {
      "anonymous": false,
      "inputs": [
        {
          "indexed": false,
          "internalType": "address",
          "name": "voter",
          "type": "address"
        },
        {
          "indexed": false,
          "internalType": "uint256",
          "name": "price",
          "type": "uint256"
        },
        {
          "indexed": false,
          "internalType": "uint256",
          "name": "roundNumber",
          "type": "uint256"
        },
        {
          "indexed": false,
          "internalType": "uint256",
          "name": "color",
          "type": "uint256"
        }
      ],
      "name": "Voted",
      "type": "event"
    },
    {
      "inputs": [],
      "name": "blue",
      "outputs": [
        {
          "internalType": "uint256",
          "name": "mintPrice",
          "type": "uint256"
        },
        {
          "internalType": "uint256",
          "name": "oldSupply",
          "type": "uint256"
        },
        {
          "internalType": "uint256",
          "name": "color",
          "type": "uint256"
        }
      ],
      "stateMutability": "view",
      "type": "function"
    },
    {
      "inputs": [],
      "name": "blueContract",
      "outputs": [
        {
          "internalType": "contract IBlue",
          "name": "",
          "type": "address"
        }
      ],
      "stateMutability": "view",
      "type": "function"
    },
    {
      "inputs": [],
      "name": "claimReward",
      "outputs": [],
      "stateMutability": "payable",
      "type": "function"
    },
    {
      "inputs": [
        {
          "internalType": "uint256",
          "name": "",
          "type": "uint256"
        }
      ],
      "name": "colorToNFT",
      "outputs": [
        {
          "internalType": "uint256",
          "name": "mintPrice",
          "type": "uint256"
        },
        {
          "internalType": "uint256",
          "name": "oldSupply",
          "type": "uint256"
        },
        {
          "internalType": "uint256",
          "name": "color",
          "type": "uint256"
        }
      ],
      "stateMutability": "view",
      "type": "function"
    },
    {
      "inputs": [],
      "name": "currentRoundPool",
      "outputs": [
        {
          "internalType": "uint256",
          "name": "",
          "type": "uint256"
        }
      ],
      "stateMutability": "view",
      "type": "function"
    },
    {
      "inputs": [],
      "name": "green",
      "outputs": [
        {
          "internalType": "uint256",
          "name": "mintPrice",
          "type": "uint256"
        },
        {
          "internalType": "uint256",
          "name": "oldSupply",
          "type": "uint256"
        },
        {
          "internalType": "uint256",
          "name": "color",
          "type": "uint256"
        }
      ],
      "stateMutability": "view",
      "type": "function"
    },
    {
      "inputs": [],
      "name": "greenContract",
      "outputs": [
        {
          "internalType": "contract IGreen",
          "name": "",
          "type": "address"
        }
      ],
      "stateMutability": "view",
      "type": "function"
    },
    {
      "inputs": [
        {
          "internalType": "uint256[]",
          "name": "tokenIds",
          "type": "uint256[]"
        }
      ],
      "name": "mintSpecialNFT",
      "outputs": [],
      "stateMutability": "nonpayable",
      "type": "function"
    },
    {
      "inputs": [],
      "name": "mintWinner",
      "outputs": [],
      "stateMutability": "payable",
      "type": "function"
    },
    {
      "inputs": [
        {
          "internalType": "address",
          "name": "dest",
          "type": "address"
        }
      ],
      "name": "payments",
      "outputs": [
        {
          "internalType": "uint256",
          "name": "",
          "type": "uint256"
        }
      ],
      "stateMutability": "view",
      "type": "function"
    },
    {
      "inputs": [],
      "name": "red",
      "outputs": [
        {
          "internalType": "uint256",
          "name": "mintPrice",
          "type": "uint256"
        },
        {
          "internalType": "uint256",
          "name": "oldSupply",
          "type": "uint256"
        },
        {
          "internalType": "uint256",
          "name": "color",
          "type": "uint256"
        }
      ],
      "stateMutability": "view",
      "type": "function"
    },
    {
      "inputs": [],
      "name": "redContract",
      "outputs": [
        {
          "internalType": "contract IRed",
          "name": "",
          "type": "address"
        }
      ],
      "stateMutability": "view",
      "type": "function"
    },
    {
      "inputs": [],
      "name": "redeemAll",
      "outputs": [],
      "stateMutability": "nonpayable",
      "type": "function"
    },
    {
      "inputs": [],
      "name": "reset",
      "outputs": [],
      "stateMutability": "nonpayable",
      "type": "function"
    },
    {
      "inputs": [],
      "name": "resetTime",
      "outputs": [
        {
          "internalType": "uint256",
          "name": "",
          "type": "uint256"
        }
      ],
      "stateMutability": "view",
      "type": "function"
    },
    {
      "inputs": [],
      "name": "roundNumber",
      "outputs": [
        {
          "internalType": "uint256",
          "name": "",
          "type": "uint256"
        }
      ],
      "stateMutability": "view",
      "type": "function"
    },
    {
      "inputs": [
        {
          "internalType": "address",
          "name": "",
          "type": "address"
        },
        {
          "internalType": "uint256",
          "name": "",
          "type": "uint256"
        }
      ],
      "name": "roundToVoter",
      "outputs": [
        {
          "internalType": "bool",
          "name": "voted",
          "type": "bool"
        },
        {
          "internalType": "uint256",
          "name": "color",
          "type": "uint256"
        },
        {
          "internalType": "uint256",
          "name": "mintPrice",
          "type": "uint256"
        },
        {
          "internalType": "bool",
          "name": "minted",
          "type": "bool"
        },
        {
          "internalType": "bool",
          "name": "claimedReward",
          "type": "bool"
        }
      ],
      "stateMutability": "view",
      "type": "function"
    },
    {
      "inputs": [],
      "name": "sidePotPool",
      "outputs": [
        {
          "internalType": "address",
          "name": "",
          "type": "address"
        }
      ],
      "stateMutability": "view",
      "type": "function"
    },
    {
      "inputs": [],
      "name": "specialNFTContract",
      "outputs": [
        {
          "internalType": "contract ISpecialNFT",
          "name": "",
          "type": "address"
        }
      ],
      "stateMutability": "view",
      "type": "function"
    },
    {
      "inputs": [
        {
          "internalType": "uint256",
          "name": "_color",
          "type": "uint256"
        }
      ],
      "name": "voteForColor",
      "outputs": [],
      "stateMutability": "payable",
      "type": "function"
    },
    {
      "inputs": [],
      "name": "votersInRound",
      "outputs": [
        {
          "internalType": "uint256",
          "name": "",
          "type": "uint256"
        }
      ],
      "stateMutability": "view",
      "type": "function"
    },
    {
      "inputs": [
        {
          "internalType": "uint256",
          "name": "_color",
          "type": "uint256"
        }
      ],
      "name": "votingPrice",
      "outputs": [
        {
          "internalType": "uint256",
          "name": "",
          "type": "uint256"
        }
      ],
      "stateMutability": "view",
      "type": "function"
    },
    {
      "inputs": [],
      "name": "winningColor",
      "outputs": [
        {
          "internalType": "uint256",
          "name": "",
          "type": "uint256"
        }
      ],
      "stateMutability": "view",
      "type": "function"
    },
    {
      "inputs": [],
      "name": "winningRound",
      "outputs": [
        {
          "internalType": "uint256",
          "name": "",
          "type": "uint256"
        }
      ],
      "stateMutability": "view",
      "type": "function"
    },
    {
      "inputs": [],
      "name": "winningStatus",
      "outputs": [
        {
          "internalType": "bool",
          "name": "",
          "type": "bool"
        }
      ],
      "stateMutability": "view",
      "type": "function"
    },
    {
      "inputs": [
        {
          "internalType": "address payable",
          "name": "payee",
          "type": "address"
        }
      ],
      "name": "withdrawPayments",
      "outputs": [],
      "stateMutability": "nonpayable",
      "type": "function"
    },
    {
      "inputs": [],
      "name": "yellow",
      "outputs": [
        {
          "internalType": "uint256",
          "name": "mintPrice",
          "type": "uint256"
        },
        {
          "internalType": "uint256",
          "name": "oldSupply",
          "type": "uint256"
        },
        {
          "internalType": "uint256",
          "name": "color",
          "type": "uint256"
        }
      ],
      "stateMutability": "view",
      "type": "function"
    },
    {
      "inputs": [],
      "name": "yellowContract",
      "outputs": [
        {
          "internalType": "contract IYellow",
          "name": "",
          "type": "address"
        }
      ],
      "stateMutability": "view",
      "type": "function"
    }
  ],
  "bytecode": "0x60a06040526000600155604051806060016040528067016345785d8a00008152602001600081526020016001815250600b6000820151816000015560208201518160010155604082015181600201555050604051806060016040528067016345785d8a00008152602001600081526020016002815250600e6000820151816000015560208201518160010155604082015181600201555050604051806060016040528067016345785d8a0000815260200160008152602001600381525060116000820151816000015560208201518160010155604082015181600201555050604051806060016040528067016345785d8a00008152602001600081526020016004815250601460008201518160000155602082015181600101556040820151816002015550503480156200013257600080fd5b50604051620044ee380380620044ee8339818101604052810190620001589190620003d1565b6040516200016690620003ac565b604051809103906000f08015801562000183573d6000803e3d6000fd5b5073ffffffffffffffffffffffffffffffffffffffff1660808173ffffffffffffffffffffffffffffffffffffffff1660601b81525050600160008190555083601760006101000a81548173ffffffffffffffffffffffffffffffffffffffff021916908373ffffffffffffffffffffffffffffffffffffffff16021790555082601860006101000a81548173ffffffffffffffffffffffffffffffffffffffff021916908373ffffffffffffffffffffffffffffffffffffffff16021790555081601960006101000a81548173ffffffffffffffffffffffffffffffffffffffff021916908373ffffffffffffffffffffffffffffffffffffffff16021790555080601a60006101000a81548173ffffffffffffffffffffffffffffffffffffffff021916908373ffffffffffffffffffffffffffffffffffffffff160217905550600b6009600060018152602001908152602001600020600082015481600001556001820154816001015560028201548160020155905050600e60096000600281526020019081526020016000206000820154816000015560018201548160010155600282015481600201559050506011600960006003815260200190815260200160002060008201548160000155600182015481600101556002820154816002015590505060146009600060048152602001908152602001600020600082015481600001556001820154816001015560028201548160020155905050505050506200048b565b610d0980620037e583390190565b600081519050620003cb8162000471565b92915050565b60008060008060808587031215620003e857600080fd5b6000620003f887828801620003ba565b94505060206200040b87828801620003ba565b93505060406200041e87828801620003ba565b92505060606200043187828801620003ba565b91505092959194509250565b60006200044a8262000451565b9050919050565b600073ffffffffffffffffffffffffffffffffffffffff82169050919050565b6200047c816200043d565b81146200048857600080fd5b50565b60805160601c61332d620004b8600039600081816106940152818161224501526123ed015261332d6000f3fe6080604052600436106101b75760003560e01c8063b345bdfc116100ec578063cbdb2e771161008a578063ed18f0a711610064578063ed18f0a714610599578063f05f4b00146105c6578063f2f1e132146105f1578063f5fcffb11461061e576101b7565b8063cbdb2e771461051a578063d826f88f14610545578063e2982c211461055c576101b7565b8063b9f68eb1116100c6578063b9f68eb11461047d578063bb9fca17146104a6578063be9faf13146104d1578063c60deabd146104fe576101b7565b8063b345bdfc14610409578063b88a802f14610448578063b9ebc2d014610452576101b7565b80634e2786fb1161015957806365a114f11161013357806365a114f11461036c5780639787fc7f14610397578063a1f532f6146103a1578063a3535b14146103cc576101b7565b80634e2786fb146102eb5780634f3516c7146103165780635fdf643d14610341576101b7565b806331b3eb941161019557806331b3eb941461022b5780633609fc9f146102545780634949787b146102955780634c914658146102c0576101b7565b80631dc5ab96146101bc5780632930cf24146101e75780632f4350c214610214575b600080fd5b3480156101c857600080fd5b506101d1610649565b6040516101de9190612972565b60405180910390f35b3480156101f357600080fd5b506101fc61066f565b60405161020b93929190612d0d565b60405180910390f35b34801561022057600080fd5b50610229610687565b005b34801561023757600080fd5b50610252600480360381019061024d91906125a9565b610692565b005b34801561026057600080fd5b5061027b600480360381019061027691906125d2565b610720565b60405161028c959493929190612a08565b60405180910390f35b3480156102a157600080fd5b506102aa61078a565b6040516102b79190612cf2565b60405180910390f35b3480156102cc57600080fd5b506102d5610790565b6040516102e29190612cf2565b60405180910390f35b3480156102f757600080fd5b50610300610796565b60405161030d9190612cf2565b60405180910390f35b34801561032257600080fd5b5061032b61079c565b6040516103389190612cf2565b60405180910390f35b34801561034d57600080fd5b506103566107a2565b6040516103639190612a91565b60405180910390f35b34801561037857600080fd5b506103816107c8565b60405161038e9190612cf2565b60405180910390f35b61039f6107ce565b005b3480156103ad57600080fd5b506103b6610ddc565b6040516103c39190612aac565b60405180910390f35b3480156103d857600080fd5b506103f360048036038101906103ee9190612653565b610e02565b6040516104009190612cf2565b60405180910390f35b34801561041557600080fd5b50610430600480360381019061042b9190612653565b610f11565b60405161043f93929190612d0d565b60405180910390f35b610450610f3b565b005b34801561045e57600080fd5b506104676112e2565b6040516104749190612a5b565b60405180910390f35b34801561048957600080fd5b506104a4600480360381019061049f919061260e565b611308565b005b3480156104b257600080fd5b506104bb611c9a565b6040516104c89190612a76565b60405180910390f35b3480156104dd57600080fd5b506104e6611cc0565b6040516104f593929190612d0d565b60405180910390f35b61051860048036038101906105139190612653565b611cd8565b005b34801561052657600080fd5b5061052f6120e2565b60405161053c91906129ed565b60405180910390f35b34801561055157600080fd5b5061055a6120f5565b005b34801561056857600080fd5b50610583600480360381019061057e9190612557565b612241565b6040516105909190612cf2565b60405180910390f35b3480156105a557600080fd5b506105ae6122f3565b6040516105bd93929190612d0d565b60405180910390f35b3480156105d257600080fd5b506105db61230b565b6040516105e89190612cf2565b60405180910390f35b3480156105fd57600080fd5b50610606612311565b60405161061593929190612d0d565b60405180910390f35b34801561062a57600080fd5b50610633612329565b6040516106409190612ac7565b60405180910390f35b600560009054906101000a900473ffffffffffffffffffffffffffffffffffffffff1681565b600b8060000154908060010154908060020154905083565b61069033610692565b565b7f000000000000000000000000000000000000000000000000000000000000000073ffffffffffffffffffffffffffffffffffffffff166351cff8d9826040518263ffffffff1660e01b81526004016106eb919061298d565b600060405180830381600087803b15801561070557600080fd5b505af1158015610719573d6000803e3d6000fd5b5050505050565b600a602052816000526040600020602052806000526040600020600091509150508060000160009054906101000a900460ff16908060010154908060020154908060030160009054906101000a900460ff16908060030160019054906101000a900460ff16905085565b60025481565b60045481565b60015481565b60075481565b601760009054906101000a900473ffffffffffffffffffffffffffffffffffffffff1681565b60065481565b60026000541415610814576040517f08c379a000000000000000000000000000000000000000000000000000000000815260040161080b90612c52565b60405180910390fd5b600260008190555060011515600a60003373ffffffffffffffffffffffffffffffffffffffff1673ffffffffffffffffffffffffffffffffffffffff1681526020019081526020016000206000600354815260200190815260200160002060000160009054906101000a900460ff161515146108c5576040517f08c379a00000000000000000000000000000000000000000000000000000000081526004016108bc90612c12565b60405180910390fd5b600254600a60003373ffffffffffffffffffffffffffffffffffffffff1673ffffffffffffffffffffffffffffffffffffffff16815260200190815260200160002060006003548152602001908152602001600020600101541461095e576040517f08c379a000000000000000000000000000000000000000000000000000000000815260040161095590612b52565b60405180910390fd5b60001515600a60003373ffffffffffffffffffffffffffffffffffffffff1673ffffffffffffffffffffffffffffffffffffffff1681526020019081526020016000206000600354815260200190815260200160002060030160009054906101000a900460ff16151514610a07576040517f08c379a00000000000000000000000000000000000000000000000000000000081526004016109fe90612cb2565b60405180910390fd5b6001600a60003373ffffffffffffffffffffffffffffffffffffffff1673ffffffffffffffffffffffffffffffffffffffff168152602001908152602001600020600060035481526020019081526020016000206001015414610cd6576002600a60003373ffffffffffffffffffffffffffffffffffffffff1673ffffffffffffffffffffffffffffffffffffffff168152602001908152602001600020600060035481526020019081526020016000206001015414610c43576003600a60003373ffffffffffffffffffffffffffffffffffffffff1673ffffffffffffffffffffffffffffffffffffffff168152602001908152602001600020600060035481526020019081526020016000206001015414610bb057601a60009054906101000a900473ffffffffffffffffffffffffffffffffffffffff1673ffffffffffffffffffffffffffffffffffffffff16634894d393336040518263ffffffff1660e01b8152600401610b799190612972565b600060405180830381600087803b158015610b9357600080fd5b505af1158015610ba7573d6000803e3d6000fd5b50505050610c3e565b601960009054906101000a900473ffffffffffffffffffffffffffffffffffffffff1673ffffffffffffffffffffffffffffffffffffffff16634894d393336040518263ffffffff1660e01b8152600401610c0b9190612972565b600060405180830381600087803b158015610c2557600080fd5b505af1158015610c39573d6000803e3d6000fd5b505050505b610cd1565b601860009054906101000a900473ffffffffffffffffffffffffffffffffffffffff1673ffffffffffffffffffffffffffffffffffffffff16634894d393336040518263ffffffff1660e01b8152600401610c9e9190612972565b600060405180830381600087803b158015610cb857600080fd5b505af1158015610ccc573d6000803e3d6000fd5b505050505b610d64565b601760009054906101000a900473ffffffffffffffffffffffffffffffffffffffff1673ffffffffffffffffffffffffffffffffffffffff16634894d393336040518263ffffffff1660e01b8152600401610d319190612972565b600060405180830381600087803b158015610d4b57600080fd5b505af1158015610d5f573d6000803e3d6000fd5b505050505b6001600a60003373ffffffffffffffffffffffffffffffffffffffff1673ffffffffffffffffffffffffffffffffffffffff1681526020019081526020016000206000600354815260200190815260200160002060030160006101000a81548160ff0219169083151502179055506001600081905550565b601b60009054906101000a900473ffffffffffffffffffffffffffffffffffffffff1681565b60008060096000848152602001908152602001600020600101549050600067016345785d8a0000905060098210610e4357670853a0d2313c00009050610f07565b60088210610e5b5767063eb89da4ed00009050610f06565b60078210610e735767054607fc96a600009050610f05565b60068210610e8b57670429d069189e00009050610f04565b60058210610ea3576703782dace9d900009050610f03565b60048210610ebb5767030d98d59a9600009050610f02565b60038210610ed35767027f7d0bdb9200009050610f01565b60028210610eeb57670214e8348c4f00009050610f00565b60018210610eff576701aa535d3d0c000090505b5b5b5b5b5b5b5b5b8092505050919050565b60096020528060005260406000206000915090508060000154908060010154908060020154905083565b60026000541415610f81576040517f08c379a0000000000000000000000000000000000000000000000000000000008152600401610f7890612c52565b60405180910390fd5b600260008190555060011515600a60003373ffffffffffffffffffffffffffffffffffffffff1673ffffffffffffffffffffffffffffffffffffffff1681526020019081526020016000206000600354815260200190815260200160002060000160009054906101000a900460ff16151514611032576040517f08c379a000000000000000000000000000000000000000000000000000000000815260040161102990612c12565b60405180910390fd5b60001515600a60003373ffffffffffffffffffffffffffffffffffffffff1673ffffffffffffffffffffffffffffffffffffffff1681526020019081526020016000206000600354815260200190815260200160002060030160019054906101000a900460ff161515146110db576040517f08c379a00000000000000000000000000000000000000000000000000000000081526004016110d290612b32565b60405180910390fd5b61111c6040518060400160405280601181526020017f63757272656e74526f756e64506f6f6c2000000000000000000000000000000081525060045461234f565b61115d6040518060400160405280600e81526020017f766f74657273496e526f756e642000000000000000000000000000000000000081525060075461234f565b6111cf6040518060400160405280600781526020017f616d6f756e742000000000000000000000000000000000000000000000000000815250600a806007546004546111a99190612db6565b6111b39190612de7565b6004546111c09190612e41565b6111ca9190612db6565b61234f565b61120c33600a806007546004546111e69190612db6565b6111f09190612de7565b6004546111fd9190612e41565b6112079190612db6565b6123eb565b611214610687565b61126a6040518060400160405280601781526020017f62616c616e63652061667465722072656465656d416c6c0000000000000000008152503373ffffffffffffffffffffffffffffffffffffffff163161234f565b6001600a60003373ffffffffffffffffffffffffffffffffffffffff1673ffffffffffffffffffffffffffffffffffffffff1681526020019081526020016000206000600354815260200190815260200160002060030160016101000a81548160ff0219169083151502179055506001600081905550565b601860009054906101000a900473ffffffffffffffffffffffffffffffffffffffff1681565b60008282905090506004811115611354576040517f08c379a000000000000000000000000000000000000000000000000000000000815260040161134b90612b12565b60405180910390fd5b6000601760009054906101000a900473ffffffffffffffffffffffffffffffffffffffff1673ffffffffffffffffffffffffffffffffffffffff16636352211e858560008181106113ce577f4e487b7100000000000000000000000000000000000000000000000000000000600052603260045260246000fd5b905060200201356040518263ffffffff1660e01b81526004016113f19190612cf2565b602060405180830381600087803b15801561140b57600080fd5b505af115801561141f573d6000803e3d6000fd5b505050506040513d601f19601f820116820180604052508101906114439190612580565b90506000601860009054906101000a900473ffffffffffffffffffffffffffffffffffffffff1673ffffffffffffffffffffffffffffffffffffffff16636352211e868660018181106114bf577f4e487b7100000000000000000000000000000000000000000000000000000000600052603260045260246000fd5b905060200201356040518263ffffffff1660e01b81526004016114e29190612cf2565b602060405180830381600087803b1580156114fc57600080fd5b505af1158015611510573d6000803e3d6000fd5b505050506040513d601f19601f820116820180604052508101906115349190612580565b90506000601960009054906101000a900473ffffffffffffffffffffffffffffffffffffffff1673ffffffffffffffffffffffffffffffffffffffff16636352211e878760028181106115b0577f4e487b7100000000000000000000000000000000000000000000000000000000600052603260045260246000fd5b905060200201356040518263ffffffff1660e01b81526004016115d39190612cf2565b602060405180830381600087803b1580156115ed57600080fd5b505af1158015611601573d6000803e3d6000fd5b505050506040513d601f19601f820116820180604052508101906116259190612580565b90506000601a60009054906101000a900473ffffffffffffffffffffffffffffffffffffffff1673ffffffffffffffffffffffffffffffffffffffff16636352211e888860038181106116a1577f4e487b7100000000000000000000000000000000000000000000000000000000600052603260045260246000fd5b905060200201356040518263ffffffff1660e01b81526004016116c49190612cf2565b602060405180830381600087803b1580156116de57600080fd5b505af11580156116f2573d6000803e3d6000fd5b505050506040513d601f19601f820116820180604052508101906117169190612580565b90508373ffffffffffffffffffffffffffffffffffffffff163373ffffffffffffffffffffffffffffffffffffffff1614611786576040517f08c379a000000000000000000000000000000000000000000000000000000000815260040161177d90612cd2565b60405180910390fd5b8273ffffffffffffffffffffffffffffffffffffffff163373ffffffffffffffffffffffffffffffffffffffff16146117f4576040517f08c379a00000000000000000000000000000000000000000000000000000000081526004016117eb90612c72565b60405180910390fd5b8173ffffffffffffffffffffffffffffffffffffffff163373ffffffffffffffffffffffffffffffffffffffff1614611862576040517f08c379a000000000000000000000000000000000000000000000000000000000815260040161185990612bb2565b60405180910390fd5b8073ffffffffffffffffffffffffffffffffffffffff163373ffffffffffffffffffffffffffffffffffffffff16146118d0576040517f08c379a00000000000000000000000000000000000000000000000000000000081526004016118c790612b72565b60405180910390fd5b601760009054906101000a900473ffffffffffffffffffffffffffffffffffffffff1673ffffffffffffffffffffffffffffffffffffffff166342966c6888886000818110611948577f4e487b7100000000000000000000000000000000000000000000000000000000600052603260045260246000fd5b905060200201356040518263ffffffff1660e01b815260040161196b9190612cf2565b600060405180830381600087803b15801561198557600080fd5b505af1158015611999573d6000803e3d6000fd5b50505050601860009054906101000a900473ffffffffffffffffffffffffffffffffffffffff1673ffffffffffffffffffffffffffffffffffffffff166342966c6888886001818110611a15577f4e487b7100000000000000000000000000000000000000000000000000000000600052603260045260246000fd5b905060200201356040518263ffffffff1660e01b8152600401611a389190612cf2565b600060405180830381600087803b158015611a5257600080fd5b505af1158015611a66573d6000803e3d6000fd5b50505050601960009054906101000a900473ffffffffffffffffffffffffffffffffffffffff1673ffffffffffffffffffffffffffffffffffffffff166342966c6888886002818110611ae2577f4e487b7100000000000000000000000000000000000000000000000000000000600052603260045260246000fd5b905060200201356040518263ffffffff1660e01b8152600401611b059190612cf2565b600060405180830381600087803b158015611b1f57600080fd5b505af1158015611b33573d6000803e3d6000fd5b50505050601a60009054906101000a900473ffffffffffffffffffffffffffffffffffffffff1673ffffffffffffffffffffffffffffffffffffffff166342966c6888886003818110611baf577f4e487b7100000000000000000000000000000000000000000000000000000000600052603260045260246000fd5b905060200201356040518263ffffffff1660e01b8152600401611bd29190612cf2565b600060405180830381600087803b158015611bec57600080fd5b505af1158015611c00573d6000803e3d6000fd5b50505050601b60009054906101000a900473ffffffffffffffffffffffffffffffffffffffff1673ffffffffffffffffffffffffffffffffffffffff16634894d393336040518263ffffffff1660e01b8152600401611c5f9190612972565b600060405180830381600087803b158015611c7957600080fd5b505af1158015611c8d573d6000803e3d6000fd5b5050505050505050505050565b601960009054906101000a900473ffffffffffffffffffffffffffffffffffffffff1681565b60148060000154908060010154908060020154905083565b60006009600083815260200190815260200160002090506000611cfe8260020154610e02565b9050803414611d42576040517f08c379a0000000000000000000000000000000000000000000000000000000008152600401611d3990612bf2565b60405180910390fd5b60018310158015611d54575060048311155b611d93576040517f08c379a0000000000000000000000000000000000000000000000000000000008152600401611d8a90612c92565b60405180910390fd5b600a826001015410611dda576040517f08c379a0000000000000000000000000000000000000000000000000000000008152600401611dd190612b92565b60405180910390fd5b6001826001016000828254611def9190612d60565b9250508190555082826002018190555082600a60003373ffffffffffffffffffffffffffffffffffffffff1673ffffffffffffffffffffffffffffffffffffffff168152602001908152602001600020600060015481526020019081526020016000206001018190555080826000018190555080600a60003373ffffffffffffffffffffffffffffffffffffffff1673ffffffffffffffffffffffffffffffffffffffff1681526020019081526020016000206000600154815260200190815260200160002060020181905550611efb6040518060400160405280600981526020017f50726963652069732000000000000000000000000000000000000000000000008152508261234f565b611f3e6040518060400160405280600a81526020017f537570706c792069732000000000000000000000000000000000000000000000815250836001015461234f565b611f7f6040518060400160405280601081526020017f526f756e64206e756d626572206973200000000000000000000000000000000081525060015461234f565b60006064605a34611f909190612de7565b611f9a9190612db6565b9050611fa633826123eb565b3460046000828254611fb89190612d60565b92505081905550600a83600101541415611ffc5760015460038190555082600201546002819055506001600860006101000a81548160ff0219169083151502179055505b6001600a60003373ffffffffffffffffffffffffffffffffffffffff1673ffffffffffffffffffffffffffffffffffffffff1681526020019081526020016000206000600154815260200190815260200160002060000160006101000a81548160ff02191690831515021790555060016007600082825461207d9190612d60565b9250508190555062015180426120939190612d60565b6006819055507fc32b42768a47a585121e9b8d7a2ab9d3f34c326a192dee11ee1732e3d18313f3338460000154600154876040516120d494939291906129a8565b60405180910390a150505050565b600860009054906101000a900460ff1681565b6006544211612139576040517f08c379a000000000000000000000000000000000000000000000000000000000815260040161213090612bd2565b60405180910390fd5b60011515600860009054906101000a900460ff1615151461218f576040517f08c379a000000000000000000000000000000000000000000000000000000000815260040161218690612c32565b60405180910390fd5b600060028190555060018060008282546121a99190612d60565b925050819055506000600b6001018190555067016345785d8a0000600b600001819055506000600e6001018190555067016345785d8a0000600e60000181905550600060146001018190555067016345785d8a0000601460000181905550600060116001018190555067016345785d8a00006011600001819055506000600860006101000a81548160ff021916908315150217905550565b60007f000000000000000000000000000000000000000000000000000000000000000073ffffffffffffffffffffffffffffffffffffffff1663e3a9db1a836040518263ffffffff1660e01b815260040161229c9190612972565b60206040518083038186803b1580156122b457600080fd5b505afa1580156122c8573d6000803e3d6000fd5b505050506040513d601f19601f820116820180604052508101906122ec919061267c565b9050919050565b600e8060000154908060010154908060020154905083565b60035481565b60118060000154908060010154908060020154905083565b601a60009054906101000a900473ffffffffffffffffffffffffffffffffffffffff1681565b6123e78282604051602401612365929190612ae2565b6040516020818303038152906040527f9710a9d0000000000000000000000000000000000000000000000000000000007bffffffffffffffffffffffffffffffffffffffffffffffffffffffff19166020820180517bffffffffffffffffffffffffffffffffffffffffffffffffffffffff838183161783525050505061247b565b5050565b7f000000000000000000000000000000000000000000000000000000000000000073ffffffffffffffffffffffffffffffffffffffff1663f340fa0182846040518363ffffffff1660e01b81526004016124459190612972565b6000604051808303818588803b15801561245e57600080fd5b505af1158015612472573d6000803e3d6000fd5b50505050505050565b60008151905060006a636f6e736f6c652e6c6f679050602083016000808483855afa5050505050565b6000813590506124b3816132b2565b92915050565b6000815190506124c8816132b2565b92915050565b6000813590506124dd816132c9565b92915050565b60008083601f8401126124f557600080fd5b8235905067ffffffffffffffff81111561250e57600080fd5b60208301915083602082028301111561252657600080fd5b9250929050565b60008135905061253c816132e0565b92915050565b600081519050612551816132e0565b92915050565b60006020828403121561256957600080fd5b6000612577848285016124a4565b91505092915050565b60006020828403121561259257600080fd5b60006125a0848285016124b9565b91505092915050565b6000602082840312156125bb57600080fd5b60006125c9848285016124ce565b91505092915050565b600080604083850312156125e557600080fd5b60006125f3858286016124a4565b92505060206126048582860161252d565b9150509250929050565b6000806020838503121561262157600080fd5b600083013567ffffffffffffffff81111561263b57600080fd5b612647858286016124e3565b92509250509250929050565b60006020828403121561266557600080fd5b60006126738482850161252d565b91505092915050565b60006020828403121561268e57600080fd5b600061269c84828501612542565b91505092915050565b6126ae81612e87565b82525050565b6126bd81612e75565b82525050565b6126cc81612e99565b82525050565b6126db81612ecf565b82525050565b6126ea81612ef3565b82525050565b6126f981612f17565b82525050565b61270881612f3b565b82525050565b61271781612f5f565b82525050565b600061272882612d44565b6127328185612d4f565b9350612742818560208601612f83565b61274b81613014565b840191505092915050565b6000612763600f83612d4f565b915061276e82613025565b602082019050919050565b6000612786602583612d4f565b91506127918261304e565b604082019050919050565b60006127a9601883612d4f565b91506127b48261309d565b602082019050919050565b60006127cc601483612d4f565b91506127d7826130c6565b602082019050919050565b60006127ef600b83612d4f565b91506127fa826130ef565b602082019050919050565b6000612812601383612d4f565b915061281d82613118565b602082019050919050565b6000612835600d83612d4f565b915061284082613141565b602082019050919050565b6000612858601383612d4f565b91506128638261316a565b602082019050919050565b600061287b600c83612d4f565b915061288682613193565b602082019050919050565b600061289e601583612d4f565b91506128a9826131bc565b602082019050919050565b60006128c1601f83612d4f565b91506128cc826131e5565b602082019050919050565b60006128e4601283612d4f565b91506128ef8261320e565b602082019050919050565b6000612907600b83612d4f565b915061291282613237565b602082019050919050565b600061292a601983612d4f565b915061293582613260565b602082019050919050565b600061294d601183612d4f565b915061295882613289565b602082019050919050565b61296c81612ec5565b82525050565b600060208201905061298760008301846126b4565b92915050565b60006020820190506129a260008301846126a5565b92915050565b60006080820190506129bd60008301876126b4565b6129ca6020830186612963565b6129d76040830185612963565b6129e46060830184612963565b95945050505050565b6000602082019050612a0260008301846126c3565b92915050565b600060a082019050612a1d60008301886126c3565b612a2a6020830187612963565b612a376040830186612963565b612a4460608301856126c3565b612a5160808301846126c3565b9695505050505050565b6000602082019050612a7060008301846126d2565b92915050565b6000602082019050612a8b60008301846126e1565b92915050565b6000602082019050612aa660008301846126f0565b92915050565b6000602082019050612ac160008301846126ff565b92915050565b6000602082019050612adc600083018461270e565b92915050565b60006040820190508181036000830152612afc818561271d565b9050612b0b6020830184612963565b9392505050565b60006020820190508181036000830152612b2b81612756565b9050919050565b60006020820190508181036000830152612b4b81612779565b9050919050565b60006020820190508181036000830152612b6b8161279c565b9050919050565b60006020820190508181036000830152612b8b816127bf565b9050919050565b60006020820190508181036000830152612bab816127e2565b9050919050565b60006020820190508181036000830152612bcb81612805565b9050919050565b60006020820190508181036000830152612beb81612828565b9050919050565b60006020820190508181036000830152612c0b8161284b565b9050919050565b60006020820190508181036000830152612c2b8161286e565b9050919050565b60006020820190508181036000830152612c4b81612891565b9050919050565b60006020820190508181036000830152612c6b816128b4565b9050919050565b60006020820190508181036000830152612c8b816128d7565b9050919050565b60006020820190508181036000830152612cab816128fa565b9050919050565b60006020820190508181036000830152612ccb8161291d565b9050919050565b60006020820190508181036000830152612ceb81612940565b9050919050565b6000602082019050612d076000830184612963565b92915050565b6000606082019050612d226000830186612963565b612d2f6020830185612963565b612d3c6040830184612963565b949350505050565b600081519050919050565b600082825260208201905092915050565b6000612d6b82612ec5565b9150612d7683612ec5565b9250827fffffffffffffffffffffffffffffffffffffffffffffffffffffffffffffffff03821115612dab57612daa612fb6565b5b828201905092915050565b6000612dc182612ec5565b9150612dcc83612ec5565b925082612ddc57612ddb612fe5565b5b828204905092915050565b6000612df282612ec5565b9150612dfd83612ec5565b9250817fffffffffffffffffffffffffffffffffffffffffffffffffffffffffffffffff0483118215151615612e3657612e35612fb6565b5b828202905092915050565b6000612e4c82612ec5565b9150612e5783612ec5565b925082821015612e6a57612e69612fb6565b5b828203905092915050565b6000612e8082612ea5565b9050919050565b6000612e9282612ea5565b9050919050565b60008115159050919050565b600073ffffffffffffffffffffffffffffffffffffffff82169050919050565b6000819050919050565b6000612eda82612ee1565b9050919050565b6000612eec82612ea5565b9050919050565b6000612efe82612f05565b9050919050565b6000612f1082612ea5565b9050919050565b6000612f2282612f29565b9050919050565b6000612f3482612ea5565b9050919050565b6000612f4682612f4d565b9050919050565b6000612f5882612ea5565b9050919050565b6000612f6a82612f71565b9050919050565b6000612f7c82612ea5565b9050919050565b60005b83811015612fa1578082015181840152602081019050612f86565b83811115612fb0576000848401525b50505050565b7f4e487b7100000000000000000000000000000000000000000000000000000000600052601160045260246000fd5b7f4e487b7100000000000000000000000000000000000000000000000000000000600052601260045260246000fd5b6000601f19601f8301169050919050565b7f546f6f206d616e7920746f6b656e730000000000000000000000000000000000600082015250565b7f416c726561647920636c61696d65642072657761726420666f7220746869732060008201527f726f756e64000000000000000000000000000000000000000000000000000000602082015250565b7f6861766520746f2062652077696e6e696e6720636f6c6f720000000000000000600082015250565b7f596f7520646f6e2774206f776e2079656c6c6f77000000000000000000000000600082015250565b7f526f756e6420656e646564000000000000000000000000000000000000000000600082015250565b7f596f7520646f6e2774206f776e20677265656e00000000000000000000000000600082015250565b7f4e6f742079657420726561647900000000000000000000000000000000000000600082015250565b7f496e73756666696369656e7420616d6f756e7400000000000000000000000000600082015250565b7f6861766520746f20766f74650000000000000000000000000000000000000000600082015250565b7f526f756e64206973206e6f742066696e69736865640000000000000000000000600082015250565b7f5265656e7472616e637947756172643a207265656e7472616e742063616c6c00600082015250565b7f596f7520646f6e2774206f776e20626c75650000000000000000000000000000600082015250565b7f77726f6e6720636f6c6f72000000000000000000000000000000000000000000600082015250565b7f416c7265616479206d696e746564207468697320726f756e6400000000000000600082015250565b7f596f7520646f6e2774206f776e20726564000000000000000000000000000000600082015250565b6132bb81612e75565b81146132c657600080fd5b50565b6132d281612e87565b81146132dd57600080fd5b50565b6132e981612ec5565b81146132f457600080fd5b5056fea26469706673582212201b14cb6d2bada7b99d5185a4a847b7b90839ddca8178bbe20f0b9fe8a3f1a54b64736f6c63430008040033608060405234801561001057600080fd5b5061002d61002261003260201b60201c565b61003a60201b60201c565b6100fe565b600033905090565b60008060009054906101000a900473ffffffffffffffffffffffffffffffffffffffff169050816000806101000a81548173ffffffffffffffffffffffffffffffffffffffff021916908373ffffffffffffffffffffffffffffffffffffffff1602179055508173ffffffffffffffffffffffffffffffffffffffff168173ffffffffffffffffffffffffffffffffffffffff167f8be0079c531659141344cd1fd0a4f28419497f9722a3daafe3b4186f6b6457e060405160405180910390a35050565b610bfc8061010d6000396000f3fe6080604052600436106100555760003560e01c806351cff8d91461005a578063715018a6146100835780638da5cb5b1461009a578063e3a9db1a146100c5578063f2fde38b14610102578063f340fa011461012b575b600080fd5b34801561006657600080fd5b50610081600480360381019061007c91906107f5565b610147565b005b34801561008f57600080fd5b506100986102c7565b005b3480156100a657600080fd5b506100af61034f565b6040516100bc9190610900565b60405180910390f35b3480156100d157600080fd5b506100ec60048036038101906100e791906107cc565b610378565b6040516100f9919061099b565b60405180910390f35b34801561010e57600080fd5b50610129600480360381019061012491906107cc565b6103c1565b005b610145600480360381019061014091906107cc565b6104b9565b005b61014f6105e2565b73ffffffffffffffffffffffffffffffffffffffff1661016d61034f565b73ffffffffffffffffffffffffffffffffffffffff16146101c3576040517f08c379a00000000000000000000000000000000000000000000000000000000081526004016101ba9061097b565b60405180910390fd5b6000600160008373ffffffffffffffffffffffffffffffffffffffff1673ffffffffffffffffffffffffffffffffffffffff1681526020019081526020016000205490506000600160008473ffffffffffffffffffffffffffffffffffffffff1673ffffffffffffffffffffffffffffffffffffffff16815260200190815260200160002081905550610275818373ffffffffffffffffffffffffffffffffffffffff166105ea90919063ffffffff16565b8173ffffffffffffffffffffffffffffffffffffffff167f7084f5476618d8e60b11ef0d7d3f06914655adb8793e28ff7f018d4c76d505d5826040516102bb919061099b565b60405180910390a25050565b6102cf6105e2565b73ffffffffffffffffffffffffffffffffffffffff166102ed61034f565b73ffffffffffffffffffffffffffffffffffffffff1614610343576040517f08c379a000000000000000000000000000000000000000000000000000000000815260040161033a9061097b565b60405180910390fd5b61034d60006106de565b565b60008060009054906101000a900473ffffffffffffffffffffffffffffffffffffffff16905090565b6000600160008373ffffffffffffffffffffffffffffffffffffffff1673ffffffffffffffffffffffffffffffffffffffff168152602001908152602001600020549050919050565b6103c96105e2565b73ffffffffffffffffffffffffffffffffffffffff166103e761034f565b73ffffffffffffffffffffffffffffffffffffffff161461043d576040517f08c379a00000000000000000000000000000000000000000000000000000000081526004016104349061097b565b60405180910390fd5b600073ffffffffffffffffffffffffffffffffffffffff168173ffffffffffffffffffffffffffffffffffffffff1614156104ad576040517f08c379a00000000000000000000000000000000000000000000000000000000081526004016104a49061091b565b60405180910390fd5b6104b6816106de565b50565b6104c16105e2565b73ffffffffffffffffffffffffffffffffffffffff166104df61034f565b73ffffffffffffffffffffffffffffffffffffffff1614610535576040517f08c379a000000000000000000000000000000000000000000000000000000000815260040161052c9061097b565b60405180910390fd5b600034905080600160008473ffffffffffffffffffffffffffffffffffffffff1673ffffffffffffffffffffffffffffffffffffffff168152602001908152602001600020600082825461058991906109d2565b925050819055508173ffffffffffffffffffffffffffffffffffffffff167f2da466a7b24304f47e87fa2e1e5a81b9831ce54fec19055ce277ca2f39ba42c4826040516105d6919061099b565b60405180910390a25050565b600033905090565b8047101561062d576040517f08c379a00000000000000000000000000000000000000000000000000000000081526004016106249061095b565b60405180910390fd5b60008273ffffffffffffffffffffffffffffffffffffffff1682604051610653906108eb565b60006040518083038185875af1925050503d8060008114610690576040519150601f19603f3d011682016040523d82523d6000602084013e610695565b606091505b50509050806106d9576040517f08c379a00000000000000000000000000000000000000000000000000000000081526004016106d09061093b565b60405180910390fd5b505050565b60008060009054906101000a900473ffffffffffffffffffffffffffffffffffffffff169050816000806101000a81548173ffffffffffffffffffffffffffffffffffffffff021916908373ffffffffffffffffffffffffffffffffffffffff1602179055508173ffffffffffffffffffffffffffffffffffffffff168173ffffffffffffffffffffffffffffffffffffffff167f8be0079c531659141344cd1fd0a4f28419497f9722a3daafe3b4186f6b6457e060405160405180910390a35050565b6000813590506107b181610b98565b92915050565b6000813590506107c681610baf565b92915050565b6000602082840312156107de57600080fd5b60006107ec848285016107a2565b91505092915050565b60006020828403121561080757600080fd5b6000610815848285016107b7565b91505092915050565b61082781610a28565b82525050565b600061083a6026836109c1565b915061084582610aa5565b604082019050919050565b600061085d603a836109c1565b915061086882610af4565b604082019050919050565b6000610880601d836109c1565b915061088b82610b43565b602082019050919050565b60006108a36020836109c1565b91506108ae82610b6c565b602082019050919050565b60006108c66000836109b6565b91506108d182610b95565b600082019050919050565b6108e581610a6c565b82525050565b60006108f6826108b9565b9150819050919050565b6000602082019050610915600083018461081e565b92915050565b600060208201905081810360008301526109348161082d565b9050919050565b6000602082019050818103600083015261095481610850565b9050919050565b6000602082019050818103600083015261097481610873565b9050919050565b6000602082019050818103600083015261099481610896565b9050919050565b60006020820190506109b060008301846108dc565b92915050565b600081905092915050565b600082825260208201905092915050565b60006109dd82610a6c565b91506109e883610a6c565b9250827fffffffffffffffffffffffffffffffffffffffffffffffffffffffffffffffff03821115610a1d57610a1c610a76565b5b828201905092915050565b6000610a3382610a4c565b9050919050565b6000610a4582610a4c565b9050919050565b600073ffffffffffffffffffffffffffffffffffffffff82169050919050565b6000819050919050565b7f4e487b7100000000000000000000000000000000000000000000000000000000600052601160045260246000fd5b7f4f776e61626c653a206e6577206f776e657220697320746865207a65726f206160008201527f6464726573730000000000000000000000000000000000000000000000000000602082015250565b7f416464726573733a20756e61626c6520746f2073656e642076616c75652c207260008201527f6563697069656e74206d61792068617665207265766572746564000000000000602082015250565b7f416464726573733a20696e73756666696369656e742062616c616e6365000000600082015250565b7f4f776e61626c653a2063616c6c6572206973206e6f7420746865206f776e6572600082015250565b50565b610ba181610a28565b8114610bac57600080fd5b50565b610bb881610a3a565b8114610bc357600080fd5b5056fea2646970667358221220b2a6db4c00e57e7ef608d5e81a53c60e6688cd2b85172cc39bb6858c6c6988ec64736f6c63430008040033",
  "linkReferences": {},
  "deployedLinkReferences": {}
}