{
  "_format": "hh-sol-artifact-1",
  "contractName": "Yellow",
  "sourceName": "contracts/Yellow.sol",
  "abi": [
    {
      "inputs": [],
      "stateMutability": "nonpayable",
      "type": "constructor"
    },
    {
      "anonymous": false,
      "inputs": [
        {
          "indexed": true,
          "internalType": "address",
          "name": "owner",
          "type": "address"
        },
        {
          "indexed": true,
          "internalType": "address",
          "name": "approved",
          "type": "address"
        },
        {
          "indexed": true,
          "internalType": "uint256",
          "name": "tokenId",
          "type": "uint256"
        }
      ],
      "name": "Approval",
      "type": "event"
    },
    {
      "anonymous": false,
      "inputs": [
        {
          "indexed": true,
          "internalType": "address",
          "name": "owner",
          "type": "address"
        },
        {
          "indexed": true,
          "internalType": "address",
          "name": "operator",
          "type": "address"
        },
        {
          "indexed": false,
          "internalType": "bool",
          "name": "approved",
          "type": "bool"
        }
      ],
      "name": "ApprovalForAll",
      "type": "event"
    },
    {
      "anonymous": false,
      "inputs": [
        {
          "indexed": true,
          "internalType": "address",
          "name": "previousOwner",
          "type": "address"
        },
        {
          "indexed": true,
          "internalType": "address",
          "name": "newOwner",
          "type": "address"
        }
      ],
      "name": "OwnershipTransferred",
      "type": "event"
    },
    {
      "anonymous": false,
      "inputs": [
        {
          "indexed": true,
          "internalType": "address",
          "name": "from",
          "type": "address"
        },
        {
          "indexed": true,
          "internalType": "address",
          "name": "to",
          "type": "address"
        },
        {
          "indexed": true,
          "internalType": "uint256",
          "name": "tokenId",
          "type": "uint256"
        }
      ],
      "name": "Transfer",
      "type": "event"
    },
    {
      "inputs": [],
      "name": "_baseTokenURI",
      "outputs": [
        {
          "internalType": "string",
          "name": "",
          "type": "string"
        }
      ],
      "stateMutability": "view",
      "type": "function"
    },
    {
      "inputs": [
        {
          "internalType": "address",
          "name": "to",
          "type": "address"
        },
        {
          "internalType": "uint256",
          "name": "tokenId",
          "type": "uint256"
        }
      ],
      "name": "approve",
      "outputs": [],
      "stateMutability": "nonpayable",
      "type": "function"
    },
    {
      "inputs": [
        {
          "internalType": "address",
          "name": "owner",
          "type": "address"
        }
      ],
      "name": "balanceOf",
      "outputs": [
        {
          "internalType": "uint256",
          "name": "",
          "type": "uint256"
        }
      ],
      "stateMutability": "view",
      "type": "function"
    },
    {
      "inputs": [
        {
          "internalType": "uint256",
          "name": "tokenId",
          "type": "uint256"
        }
      ],
      "name": "burn",
      "outputs": [],
      "stateMutability": "nonpayable",
      "type": "function"
    },
    {
      "inputs": [
        {
          "internalType": "uint256",
          "name": "tokenId",
          "type": "uint256"
        }
      ],
      "name": "getApproved",
      "outputs": [
        {
          "internalType": "address",
          "name": "",
          "type": "address"
        }
      ],
      "stateMutability": "view",
      "type": "function"
    },
    {
      "inputs": [
        {
          "internalType": "address",
          "name": "owner",
          "type": "address"
        },
        {
          "internalType": "address",
          "name": "operator",
          "type": "address"
        }
      ],
      "name": "isApprovedForAll",
      "outputs": [
        {
          "internalType": "bool",
          "name": "",
          "type": "bool"
        }
      ],
      "stateMutability": "view",
      "type": "function"
    },
    {
      "inputs": [
        {
          "internalType": "address",
          "name": "_minter",
          "type": "address"
        }
      ],
      "name": "mintWinner",
      "outputs": [],
      "stateMutability": "nonpayable",
      "type": "function"
    },
    {
      "inputs": [],
      "name": "name",
      "outputs": [
        {
          "internalType": "string",
          "name": "",
          "type": "string"
        }
      ],
      "stateMutability": "view",
      "type": "function"
    },
    {
      "inputs": [],
      "name": "owner",
      "outputs": [
        {
          "internalType": "address",
          "name": "",
          "type": "address"
        }
      ],
      "stateMutability": "view",
      "type": "function"
    },
    {
      "inputs": [
        {
          "internalType": "uint256",
          "name": "tokenId",
          "type": "uint256"
        }
      ],
      "name": "ownerOf",
      "outputs": [
        {
          "internalType": "address",
          "name": "",
          "type": "address"
        }
      ],
      "stateMutability": "view",
      "type": "function"
    },
    {
      "inputs": [],
      "name": "renounceOwnership",
      "outputs": [],
      "stateMutability": "nonpayable",
      "type": "function"
    },
    {
      "inputs": [
        {
          "internalType": "address",
          "name": "from",
          "type": "address"
        },
        {
          "internalType": "address",
          "name": "to",
          "type": "address"
        },
        {
          "internalType": "uint256",
          "name": "tokenId",
          "type": "uint256"
        }
      ],
      "name": "safeTransferFrom",
      "outputs": [],
      "stateMutability": "nonpayable",
      "type": "function"
    },
    {
      "inputs": [
        {
          "internalType": "address",
          "name": "from",
          "type": "address"
        },
        {
          "internalType": "address",
          "name": "to",
          "type": "address"
        },
        {
          "internalType": "uint256",
          "name": "tokenId",
          "type": "uint256"
        },
        {
          "internalType": "bytes",
          "name": "_data",
          "type": "bytes"
        }
      ],
      "name": "safeTransferFrom",
      "outputs": [],
      "stateMutability": "nonpayable",
      "type": "function"
    },
    {
      "inputs": [
        {
          "internalType": "address",
          "name": "operator",
          "type": "address"
        },
        {
          "internalType": "bool",
          "name": "approved",
          "type": "bool"
        }
      ],
      "name": "setApprovalForAll",
      "outputs": [],
      "stateMutability": "nonpayable",
      "type": "function"
    },
    {
      "inputs": [
        {
          "internalType": "bytes4",
          "name": "interfaceId",
          "type": "bytes4"
        }
      ],
      "name": "supportsInterface",
      "outputs": [
        {
          "internalType": "bool",
          "name": "",
          "type": "bool"
        }
      ],
      "stateMutability": "view",
      "type": "function"
    },
    {
      "inputs": [],
      "name": "symbol",
      "outputs": [
        {
          "internalType": "string",
          "name": "",
          "type": "string"
        }
      ],
      "stateMutability": "view",
      "type": "function"
    },
    {
      "inputs": [
        {
          "internalType": "uint256",
          "name": "index",
          "type": "uint256"
        }
      ],
      "name": "tokenByIndex",
      "outputs": [
        {
          "internalType": "uint256",
          "name": "",
          "type": "uint256"
        }
      ],
      "stateMutability": "view",
      "type": "function"
    },
    {
      "inputs": [
        {
          "internalType": "address",
          "name": "owner",
          "type": "address"
        },
        {
          "internalType": "uint256",
          "name": "index",
          "type": "uint256"
        }
      ],
      "name": "tokenOfOwnerByIndex",
      "outputs": [
        {
          "internalType": "uint256",
          "name": "",
          "type": "uint256"
        }
      ],
      "stateMutability": "view",
      "type": "function"
    },
    {
      "inputs": [
        {
          "internalType": "uint256",
          "name": "tokenId",
          "type": "uint256"
        }
      ],
      "name": "tokenURI",
      "outputs": [
        {
          "internalType": "string",
          "name": "",
          "type": "string"
        }
      ],
      "stateMutability": "view",
      "type": "function"
    },
    {
      "inputs": [],
      "name": "totalSupply",
      "outputs": [
        {
          "internalType": "uint256",
          "name": "",
          "type": "uint256"
        }
      ],
      "stateMutability": "view",
      "type": "function"
    },
    {
      "inputs": [
        {
          "internalType": "address",
          "name": "from",
          "type": "address"
        },
        {
          "internalType": "address",
          "name": "to",
          "type": "address"
        },
        {
          "internalType": "uint256",
          "name": "tokenId",
          "type": "uint256"
        }
      ],
      "name": "transferFrom",
      "outputs": [],
      "stateMutability": "nonpayable",
      "type": "function"
    },
    {
      "inputs": [
        {
          "internalType": "address",
          "name": "newOwner",
          "type": "address"
        }
      ],
      "name": "transferOwnership",
      "outputs": [],
      "stateMutability": "nonpayable",
      "type": "function"
    }
  ],
  "bytecode": "0x60806040526040518060800160405280605c8152602001620035e2605c9139600c908051906020019062000035929190620001d6565b503480156200004357600080fd5b506040518060400160405280600a81526020017f436f6d706c6578696f6e000000000000000000000000000000000000000000008152506040518060400160405280600781526020017f434f4d504c455800000000000000000000000000000000000000000000000000815250620000d0620000c46200010a60201b60201c565b6200011260201b60201c565b8160019080519060200190620000e8929190620001d6565b50806002908051906020019062000101929190620001d6565b505050620002eb565b600033905090565b60008060009054906101000a900473ffffffffffffffffffffffffffffffffffffffff169050816000806101000a81548173ffffffffffffffffffffffffffffffffffffffff021916908373ffffffffffffffffffffffffffffffffffffffff1602179055508173ffffffffffffffffffffffffffffffffffffffff168173ffffffffffffffffffffffffffffffffffffffff167f8be0079c531659141344cd1fd0a4f28419497f9722a3daafe3b4186f6b6457e060405160405180910390a35050565b828054620001e49062000286565b90600052602060002090601f01602090048101928262000208576000855562000254565b82601f106200022357805160ff191683800117855562000254565b8280016001018555821562000254579182015b828111156200025357825182559160200191906001019062000236565b5b50905062000263919062000267565b5090565b5b808211156200028257600081600090555060010162000268565b5090565b600060028204905060018216806200029f57607f821691505b60208210811415620002b657620002b5620002bc565b5b50919050565b7f4e487b7100000000000000000000000000000000000000000000000000000000600052602260045260246000fd5b6132e780620002fb6000396000f3fe608060405234801561001057600080fd5b50600436106101425760003560e01c80636352211e116100b8578063a22cb4651161007c578063a22cb46514610375578063b88d4fde14610391578063c87b56dd146103ad578063cfc86f7b146103dd578063e985e9c5146103fb578063f2fde38b1461042b57610142565b80636352211e146102cf57806370a08231146102ff578063715018a61461032f5780638da5cb5b1461033957806395d89b411461035757610142565b806323b872dd1161010a57806323b872dd146101ff5780632f745c591461021b57806342842e0e1461024b57806342966c68146102675780634894d393146102835780634f6ccce71461029f57610142565b806301ffc9a71461014757806306fdde0314610177578063081812fc14610195578063095ea7b3146101c557806318160ddd146101e1575b600080fd5b610161600480360381019061015c9190612427565b610447565b60405161016e919061281e565b60405180910390f35b61017f6104c1565b60405161018c9190612839565b60405180910390f35b6101af60048036038101906101aa9190612479565b610553565b6040516101bc91906127b7565b60405180910390f35b6101df60048036038101906101da91906123eb565b6105d8565b005b6101e96106f0565b6040516101f69190612a9b565b60405180910390f35b610219600480360381019061021491906122e5565b6106fd565b005b610235600480360381019061023091906123eb565b61075d565b6040516102429190612a9b565b60405180910390f35b610265600480360381019061026091906122e5565b610802565b005b610281600480360381019061027c9190612479565b610822565b005b61029d60048036038101906102989190612280565b6108a4565b005b6102b960048036038101906102b49190612479565b61093a565b6040516102c69190612a9b565b60405180910390f35b6102e960048036038101906102e49190612479565b6109d1565b6040516102f691906127b7565b60405180910390f35b61031960048036038101906103149190612280565b610a83565b6040516103269190612a9b565b60405180910390f35b610337610b3b565b005b610341610bc3565b60405161034e91906127b7565b60405180910390f35b61035f610bec565b60405161036c9190612839565b60405180910390f35b61038f600480360381019061038a91906123af565b610c7e565b005b6103ab60048036038101906103a69190612334565b610c94565b005b6103c760048036038101906103c29190612479565b610cf6565b6040516103d49190612839565b60405180910390f35b6103e5610d8a565b6040516103f29190612839565b60405180910390f35b610415600480360381019061041091906122a9565b610e18565b604051610422919061281e565b60405180910390f35b61044560048036038101906104409190612280565b610eac565b005b60007f780e9d63000000000000000000000000000000000000000000000000000000007bffffffffffffffffffffffffffffffffffffffffffffffffffffffff1916827bffffffffffffffffffffffffffffffffffffffffffffffffffffffff191614806104ba57506104b982610fa4565b5b9050919050565b6060600180546104d090612c84565b80601f01602080910402602001604051908101604052809291908181526020018280546104fc90612c84565b80156105495780601f1061051e57610100808354040283529160200191610549565b820191906000526020600020905b81548152906001019060200180831161052c57829003601f168201915b5050505050905090565b600061055e82611086565b61059d576040517f08c379a0000000000000000000000000000000000000000000000000000000008152600401610594906129fb565b60405180910390fd5b6005600083815260200190815260200160002060009054906101000a900473ffffffffffffffffffffffffffffffffffffffff169050919050565b60006105e3826109d1565b90508073ffffffffffffffffffffffffffffffffffffffff168373ffffffffffffffffffffffffffffffffffffffff161415610654576040517f08c379a000000000000000000000000000000000000000000000000000000000815260040161064b90612a3b565b60405180910390fd5b8073ffffffffffffffffffffffffffffffffffffffff166106736110f2565b73ffffffffffffffffffffffffffffffffffffffff1614806106a257506106a18161069c6110f2565b610e18565b5b6106e1576040517f08c379a00000000000000000000000000000000000000000000000000000000081526004016106d89061297b565b60405180910390fd5b6106eb83836110fa565b505050565b6000600980549050905090565b61070e6107086110f2565b826111b3565b61074d576040517f08c379a000000000000000000000000000000000000000000000000000000000815260040161074490612a5b565b60405180910390fd5b610758838383611291565b505050565b600061076883610a83565b82106107a9576040517f08c379a00000000000000000000000000000000000000000000000000000000081526004016107a09061285b565b60405180910390fd5b600760008473ffffffffffffffffffffffffffffffffffffffff1673ffffffffffffffffffffffffffffffffffffffff168152602001908152602001600020600083815260200190815260200160002054905092915050565b61081d83838360405180602001604052806000815250610c94565b505050565b61082b816109d1565b73ffffffffffffffffffffffffffffffffffffffff163373ffffffffffffffffffffffffffffffffffffffff1614610898576040517f08c379a000000000000000000000000000000000000000000000000000000000815260040161088f9061293b565b60405180910390fd5b6108a1816114f8565b50565b6108ac6110f2565b73ffffffffffffffffffffffffffffffffffffffff166108ca610bc3565b73ffffffffffffffffffffffffffffffffffffffff1614610920576040517f08c379a000000000000000000000000000000000000000000000000000000000815260040161091790612a1b565b60405180910390fd5b600061092a6106f0565b90506109368282611615565b5050565b60006109446106f0565b8210610985576040517f08c379a000000000000000000000000000000000000000000000000000000000815260040161097c90612a7b565b60405180910390fd5b600982815481106109bf577f4e487b7100000000000000000000000000000000000000000000000000000000600052603260045260246000fd5b90600052602060002001549050919050565b6000806003600084815260200190815260200160002060009054906101000a900473ffffffffffffffffffffffffffffffffffffffff169050600073ffffffffffffffffffffffffffffffffffffffff168173ffffffffffffffffffffffffffffffffffffffff161415610a7a576040517f08c379a0000000000000000000000000000000000000000000000000000000008152600401610a71906129bb565b60405180910390fd5b80915050919050565b60008073ffffffffffffffffffffffffffffffffffffffff168273ffffffffffffffffffffffffffffffffffffffff161415610af4576040517f08c379a0000000000000000000000000000000000000000000000000000000008152600401610aeb9061299b565b60405180910390fd5b600460008373ffffffffffffffffffffffffffffffffffffffff1673ffffffffffffffffffffffffffffffffffffffff168152602001908152602001600020549050919050565b610b436110f2565b73ffffffffffffffffffffffffffffffffffffffff16610b61610bc3565b73ffffffffffffffffffffffffffffffffffffffff1614610bb7576040517f08c379a0000000000000000000000000000000000000000000000000000000008152600401610bae90612a1b565b60405180910390fd5b610bc16000611633565b565b60008060009054906101000a900473ffffffffffffffffffffffffffffffffffffffff16905090565b606060028054610bfb90612c84565b80601f0160208091040260200160405190810160405280929190818152602001828054610c2790612c84565b8015610c745780601f10610c4957610100808354040283529160200191610c74565b820191906000526020600020905b815481529060010190602001808311610c5757829003601f168201915b5050505050905090565b610c90610c896110f2565b83836116f7565b5050565b610ca5610c9f6110f2565b836111b3565b610ce4576040517f08c379a0000000000000000000000000000000000000000000000000000000008152600401610cdb90612a5b565b60405180910390fd5b610cf084848484611864565b50505050565b6060600c8054610d0590612c84565b80601f0160208091040260200160405190810160405280929190818152602001828054610d3190612c84565b8015610d7e5780601f10610d5357610100808354040283529160200191610d7e565b820191906000526020600020905b815481529060010190602001808311610d6157829003601f168201915b50505050509050919050565b600b8054610d9790612c84565b80601f0160208091040260200160405190810160405280929190818152602001828054610dc390612c84565b8015610e105780601f10610de557610100808354040283529160200191610e10565b820191906000526020600020905b815481529060010190602001808311610df357829003601f168201915b505050505081565b6000600660008473ffffffffffffffffffffffffffffffffffffffff1673ffffffffffffffffffffffffffffffffffffffff16815260200190815260200160002060008373ffffffffffffffffffffffffffffffffffffffff1673ffffffffffffffffffffffffffffffffffffffff16815260200190815260200160002060009054906101000a900460ff16905092915050565b610eb46110f2565b73ffffffffffffffffffffffffffffffffffffffff16610ed2610bc3565b73ffffffffffffffffffffffffffffffffffffffff1614610f28576040517f08c379a0000000000000000000000000000000000000000000000000000000008152600401610f1f90612a1b565b60405180910390fd5b600073ffffffffffffffffffffffffffffffffffffffff168173ffffffffffffffffffffffffffffffffffffffff161415610f98576040517f08c379a0000000000000000000000000000000000000000000000000000000008152600401610f8f9061289b565b60405180910390fd5b610fa181611633565b50565b60007f80ac58cd000000000000000000000000000000000000000000000000000000007bffffffffffffffffffffffffffffffffffffffffffffffffffffffff1916827bffffffffffffffffffffffffffffffffffffffffffffffffffffffff1916148061106f57507f5b5e139f000000000000000000000000000000000000000000000000000000007bffffffffffffffffffffffffffffffffffffffffffffffffffffffff1916827bffffffffffffffffffffffffffffffffffffffffffffffffffffffff1916145b8061107f575061107e826118c0565b5b9050919050565b60008073ffffffffffffffffffffffffffffffffffffffff166003600084815260200190815260200160002060009054906101000a900473ffffffffffffffffffffffffffffffffffffffff1673ffffffffffffffffffffffffffffffffffffffff1614159050919050565b600033905090565b816005600083815260200190815260200160002060006101000a81548173ffffffffffffffffffffffffffffffffffffffff021916908373ffffffffffffffffffffffffffffffffffffffff160217905550808273ffffffffffffffffffffffffffffffffffffffff1661116d836109d1565b73ffffffffffffffffffffffffffffffffffffffff167f8c5be1e5ebec7d5bd14f71427d1e84f3dd0314c0f7b2291e5b200ac8c7c3b92560405160405180910390a45050565b60006111be82611086565b6111fd576040517f08c379a00000000000000000000000000000000000000000000000000000000081526004016111f49061295b565b60405180910390fd5b6000611208836109d1565b90508073ffffffffffffffffffffffffffffffffffffffff168473ffffffffffffffffffffffffffffffffffffffff16148061127757508373ffffffffffffffffffffffffffffffffffffffff1661125f84610553565b73ffffffffffffffffffffffffffffffffffffffff16145b8061128857506112878185610e18565b5b91505092915050565b8273ffffffffffffffffffffffffffffffffffffffff166112b1826109d1565b73ffffffffffffffffffffffffffffffffffffffff1614611307576040517f08c379a00000000000000000000000000000000000000000000000000000000081526004016112fe906128bb565b60405180910390fd5b600073ffffffffffffffffffffffffffffffffffffffff168273ffffffffffffffffffffffffffffffffffffffff161415611377576040517f08c379a000000000000000000000000000000000000000000000000000000000815260040161136e906128fb565b60405180910390fd5b61138283838361192a565b61138d6000826110fa565b6001600460008573ffffffffffffffffffffffffffffffffffffffff1673ffffffffffffffffffffffffffffffffffffffff16815260200190815260200160002060008282546113dd9190612b9a565b925050819055506001600460008473ffffffffffffffffffffffffffffffffffffffff1673ffffffffffffffffffffffffffffffffffffffff16815260200190815260200160002060008282546114349190612b44565b92505081905550816003600083815260200190815260200160002060006101000a81548173ffffffffffffffffffffffffffffffffffffffff021916908373ffffffffffffffffffffffffffffffffffffffff160217905550808273ffffffffffffffffffffffffffffffffffffffff168473ffffffffffffffffffffffffffffffffffffffff167fddf252ad1be2c89b69c2b068fc378daa952ba7f163c4a11628f55a4df523b3ef60405160405180910390a46114f3838383611a3e565b505050565b6000611503826109d1565b90506115118160008461192a565b61151c6000836110fa565b6001600460008373ffffffffffffffffffffffffffffffffffffffff1673ffffffffffffffffffffffffffffffffffffffff168152602001908152602001600020600082825461156c9190612b9a565b925050819055506003600083815260200190815260200160002060006101000a81549073ffffffffffffffffffffffffffffffffffffffff021916905581600073ffffffffffffffffffffffffffffffffffffffff168273ffffffffffffffffffffffffffffffffffffffff167fddf252ad1be2c89b69c2b068fc378daa952ba7f163c4a11628f55a4df523b3ef60405160405180910390a461161181600084611a3e565b5050565b61162f828260405180602001604052806000815250611a43565b5050565b60008060009054906101000a900473ffffffffffffffffffffffffffffffffffffffff169050816000806101000a81548173ffffffffffffffffffffffffffffffffffffffff021916908373ffffffffffffffffffffffffffffffffffffffff1602179055508173ffffffffffffffffffffffffffffffffffffffff168173ffffffffffffffffffffffffffffffffffffffff167f8be0079c531659141344cd1fd0a4f28419497f9722a3daafe3b4186f6b6457e060405160405180910390a35050565b8173ffffffffffffffffffffffffffffffffffffffff168373ffffffffffffffffffffffffffffffffffffffff161415611766576040517f08c379a000000000000000000000000000000000000000000000000000000000815260040161175d9061291b565b60405180910390fd5b80600660008573ffffffffffffffffffffffffffffffffffffffff1673ffffffffffffffffffffffffffffffffffffffff16815260200190815260200160002060008473ffffffffffffffffffffffffffffffffffffffff1673ffffffffffffffffffffffffffffffffffffffff16815260200190815260200160002060006101000a81548160ff0219169083151502179055508173ffffffffffffffffffffffffffffffffffffffff168373ffffffffffffffffffffffffffffffffffffffff167f17307eab39ab6107e8899845ad3d59bd9653f200f220920489ca2b5937696c3183604051611857919061281e565b60405180910390a3505050565b61186f848484611291565b61187b84848484611a9e565b6118ba576040517f08c379a00000000000000000000000000000000000000000000000000000000081526004016118b19061287b565b60405180910390fd5b50505050565b60007f01ffc9a7000000000000000000000000000000000000000000000000000000007bffffffffffffffffffffffffffffffffffffffffffffffffffffffff1916827bffffffffffffffffffffffffffffffffffffffffffffffffffffffff1916149050919050565b611935838383611c35565b600073ffffffffffffffffffffffffffffffffffffffff168373ffffffffffffffffffffffffffffffffffffffff1614156119785761197381611c3a565b6119b7565b8173ffffffffffffffffffffffffffffffffffffffff168373ffffffffffffffffffffffffffffffffffffffff16146119b6576119b58382611c83565b5b5b600073ffffffffffffffffffffffffffffffffffffffff168273ffffffffffffffffffffffffffffffffffffffff1614156119fa576119f581611df0565b611a39565b8273ffffffffffffffffffffffffffffffffffffffff168273ffffffffffffffffffffffffffffffffffffffff1614611a3857611a378282611f33565b5b5b505050565b505050565b611a4d8383611fb2565b611a5a6000848484611a9e565b611a99576040517f08c379a0000000000000000000000000000000000000000000000000000000008152600401611a909061287b565b60405180910390fd5b505050565b6000611abf8473ffffffffffffffffffffffffffffffffffffffff1661218c565b15611c28578373ffffffffffffffffffffffffffffffffffffffff1663150b7a02611ae86110f2565b8786866040518563ffffffff1660e01b8152600401611b0a94939291906127d2565b602060405180830381600087803b158015611b2457600080fd5b505af1925050508015611b5557506040513d601f19601f82011682018060405250810190611b529190612450565b60015b611bd8573d8060008114611b85576040519150601f19603f3d011682016040523d82523d6000602084013e611b8a565b606091505b50600081511415611bd0576040517f08c379a0000000000000000000000000000000000000000000000000000000008152600401611bc79061287b565b60405180910390fd5b805181602001fd5b63150b7a0260e01b7bffffffffffffffffffffffffffffffffffffffffffffffffffffffff1916817bffffffffffffffffffffffffffffffffffffffffffffffffffffffff191614915050611c2d565b600190505b949350505050565b505050565b600980549050600a600083815260200190815260200160002081905550600981908060018154018082558091505060019003906000526020600020016000909190919091505550565b60006001611c9084610a83565b611c9a9190612b9a565b9050600060086000848152602001908152602001600020549050818114611d7f576000600760008673ffffffffffffffffffffffffffffffffffffffff1673ffffffffffffffffffffffffffffffffffffffff168152602001908152602001600020600084815260200190815260200160002054905080600760008773ffffffffffffffffffffffffffffffffffffffff1673ffffffffffffffffffffffffffffffffffffffff168152602001908152602001600020600084815260200190815260200160002081905550816008600083815260200190815260200160002081905550505b6008600084815260200190815260200160002060009055600760008573ffffffffffffffffffffffffffffffffffffffff1673ffffffffffffffffffffffffffffffffffffffff16815260200190815260200160002060008381526020019081526020016000206000905550505050565b60006001600980549050611e049190612b9a565b90506000600a6000848152602001908152602001600020549050600060098381548110611e5a577f4e487b7100000000000000000000000000000000000000000000000000000000600052603260045260246000fd5b906000526020600020015490508060098381548110611ea2577f4e487b7100000000000000000000000000000000000000000000000000000000600052603260045260246000fd5b906000526020600020018190555081600a600083815260200190815260200160002081905550600a6000858152602001908152602001600020600090556009805480611f17577f4e487b7100000000000000000000000000000000000000000000000000000000600052603160045260246000fd5b6001900381819060005260206000200160009055905550505050565b6000611f3e83610a83565b905081600760008573ffffffffffffffffffffffffffffffffffffffff1673ffffffffffffffffffffffffffffffffffffffff168152602001908152602001600020600083815260200190815260200160002081905550806008600084815260200190815260200160002081905550505050565b600073ffffffffffffffffffffffffffffffffffffffff168273ffffffffffffffffffffffffffffffffffffffff161415612022576040517f08c379a0000000000000000000000000000000000000000000000000000000008152600401612019906129db565b60405180910390fd5b61202b81611086565b1561206b576040517f08c379a0000000000000000000000000000000000000000000000000000000008152600401612062906128db565b60405180910390fd5b6120776000838361192a565b6001600460008473ffffffffffffffffffffffffffffffffffffffff1673ffffffffffffffffffffffffffffffffffffffff16815260200190815260200160002060008282546120c79190612b44565b92505081905550816003600083815260200190815260200160002060006101000a81548173ffffffffffffffffffffffffffffffffffffffff021916908373ffffffffffffffffffffffffffffffffffffffff160217905550808273ffffffffffffffffffffffffffffffffffffffff16600073ffffffffffffffffffffffffffffffffffffffff167fddf252ad1be2c89b69c2b068fc378daa952ba7f163c4a11628f55a4df523b3ef60405160405180910390a461218860008383611a3e565b5050565b6000808273ffffffffffffffffffffffffffffffffffffffff163b119050919050565b60006121c26121bd84612adb565b612ab6565b9050828152602081018484840111156121da57600080fd5b6121e5848285612c42565b509392505050565b6000813590506121fc81613255565b92915050565b6000813590506122118161326c565b92915050565b60008135905061222681613283565b92915050565b60008151905061223b81613283565b92915050565b600082601f83011261225257600080fd5b81356122628482602086016121af565b91505092915050565b60008135905061227a8161329a565b92915050565b60006020828403121561229257600080fd5b60006122a0848285016121ed565b91505092915050565b600080604083850312156122bc57600080fd5b60006122ca858286016121ed565b92505060206122db858286016121ed565b9150509250929050565b6000806000606084860312156122fa57600080fd5b6000612308868287016121ed565b9350506020612319868287016121ed565b925050604061232a8682870161226b565b9150509250925092565b6000806000806080858703121561234a57600080fd5b6000612358878288016121ed565b9450506020612369878288016121ed565b935050604061237a8782880161226b565b925050606085013567ffffffffffffffff81111561239757600080fd5b6123a387828801612241565b91505092959194509250565b600080604083850312156123c257600080fd5b60006123d0858286016121ed565b92505060206123e185828601612202565b9150509250929050565b600080604083850312156123fe57600080fd5b600061240c858286016121ed565b925050602061241d8582860161226b565b9150509250929050565b60006020828403121561243957600080fd5b600061244784828501612217565b91505092915050565b60006020828403121561246257600080fd5b60006124708482850161222c565b91505092915050565b60006020828403121561248b57600080fd5b60006124998482850161226b565b91505092915050565b6124ab81612bce565b82525050565b6124ba81612be0565b82525050565b60006124cb82612b0c565b6124d58185612b22565b93506124e5818560208601612c51565b6124ee81612d74565b840191505092915050565b600061250482612b17565b61250e8185612b33565b935061251e818560208601612c51565b61252781612d74565b840191505092915050565b600061253f602b83612b33565b915061254a82612d85565b604082019050919050565b6000612562603283612b33565b915061256d82612dd4565b604082019050919050565b6000612585602683612b33565b915061259082612e23565b604082019050919050565b60006125a8602583612b33565b91506125b382612e72565b604082019050919050565b60006125cb601c83612b33565b91506125d682612ec1565b602082019050919050565b60006125ee602483612b33565b91506125f982612eea565b604082019050919050565b6000612611601983612b33565b915061261c82612f39565b602082019050919050565b6000612634601583612b33565b915061263f82612f62565b602082019050919050565b6000612657602c83612b33565b915061266282612f8b565b604082019050919050565b600061267a603883612b33565b915061268582612fda565b604082019050919050565b600061269d602a83612b33565b91506126a882613029565b604082019050919050565b60006126c0602983612b33565b91506126cb82613078565b604082019050919050565b60006126e3602083612b33565b91506126ee826130c7565b602082019050919050565b6000612706602c83612b33565b9150612711826130f0565b604082019050919050565b6000612729602083612b33565b91506127348261313f565b602082019050919050565b600061274c602183612b33565b915061275782613168565b604082019050919050565b600061276f603183612b33565b915061277a826131b7565b604082019050919050565b6000612792602c83612b33565b915061279d82613206565b604082019050919050565b6127b181612c38565b82525050565b60006020820190506127cc60008301846124a2565b92915050565b60006080820190506127e760008301876124a2565b6127f460208301866124a2565b61280160408301856127a8565b818103606083015261281381846124c0565b905095945050505050565b600060208201905061283360008301846124b1565b92915050565b6000602082019050818103600083015261285381846124f9565b905092915050565b6000602082019050818103600083015261287481612532565b9050919050565b6000602082019050818103600083015261289481612555565b9050919050565b600060208201905081810360008301526128b481612578565b9050919050565b600060208201905081810360008301526128d48161259b565b9050919050565b600060208201905081810360008301526128f4816125be565b9050919050565b60006020820190508181036000830152612914816125e1565b9050919050565b6000602082019050818103600083015261293481612604565b9050919050565b6000602082019050818103600083015261295481612627565b9050919050565b600060208201905081810360008301526129748161264a565b9050919050565b600060208201905081810360008301526129948161266d565b9050919050565b600060208201905081810360008301526129b481612690565b9050919050565b600060208201905081810360008301526129d4816126b3565b9050919050565b600060208201905081810360008301526129f4816126d6565b9050919050565b60006020820190508181036000830152612a14816126f9565b9050919050565b60006020820190508181036000830152612a348161271c565b9050919050565b60006020820190508181036000830152612a548161273f565b9050919050565b60006020820190508181036000830152612a7481612762565b9050919050565b60006020820190508181036000830152612a9481612785565b9050919050565b6000602082019050612ab060008301846127a8565b92915050565b6000612ac0612ad1565b9050612acc8282612cb6565b919050565b6000604051905090565b600067ffffffffffffffff821115612af657612af5612d45565b5b612aff82612d74565b9050602081019050919050565b600081519050919050565b600081519050919050565b600082825260208201905092915050565b600082825260208201905092915050565b6000612b4f82612c38565b9150612b5a83612c38565b9250827fffffffffffffffffffffffffffffffffffffffffffffffffffffffffffffffff03821115612b8f57612b8e612ce7565b5b828201905092915050565b6000612ba582612c38565b9150612bb083612c38565b925082821015612bc357612bc2612ce7565b5b828203905092915050565b6000612bd982612c18565b9050919050565b60008115159050919050565b60007fffffffff0000000000000000000000000000000000000000000000000000000082169050919050565b600073ffffffffffffffffffffffffffffffffffffffff82169050919050565b6000819050919050565b82818337600083830152505050565b60005b83811015612c6f578082015181840152602081019050612c54565b83811115612c7e576000848401525b50505050565b60006002820490506001821680612c9c57607f821691505b60208210811415612cb057612caf612d16565b5b50919050565b612cbf82612d74565b810181811067ffffffffffffffff82111715612cde57612cdd612d45565b5b80604052505050565b7f4e487b7100000000000000000000000000000000000000000000000000000000600052601160045260246000fd5b7f4e487b7100000000000000000000000000000000000000000000000000000000600052602260045260246000fd5b7f4e487b7100000000000000000000000000000000000000000000000000000000600052604160045260246000fd5b6000601f19601f8301169050919050565b7f455243373231456e756d657261626c653a206f776e657220696e646578206f7560008201527f74206f6620626f756e6473000000000000000000000000000000000000000000602082015250565b7f4552433732313a207472616e7366657220746f206e6f6e20455243373231526560008201527f63656976657220696d706c656d656e7465720000000000000000000000000000602082015250565b7f4f776e61626c653a206e6577206f776e657220697320746865207a65726f206160008201527f6464726573730000000000000000000000000000000000000000000000000000602082015250565b7f4552433732313a207472616e736665722066726f6d20696e636f72726563742060008201527f6f776e6572000000000000000000000000000000000000000000000000000000602082015250565b7f4552433732313a20746f6b656e20616c7265616479206d696e74656400000000600082015250565b7f4552433732313a207472616e7366657220746f20746865207a65726f2061646460008201527f7265737300000000000000000000000000000000000000000000000000000000602082015250565b7f4552433732313a20617070726f766520746f2063616c6c657200000000000000600082015250565b7f596f7520617265206e6f7420746865206f776e65720000000000000000000000600082015250565b7f4552433732313a206f70657261746f7220717565727920666f72206e6f6e657860008201527f697374656e7420746f6b656e0000000000000000000000000000000000000000602082015250565b7f4552433732313a20617070726f76652063616c6c6572206973206e6f74206f7760008201527f6e6572206e6f7220617070726f76656420666f7220616c6c0000000000000000602082015250565b7f4552433732313a2062616c616e636520717565727920666f7220746865207a6560008201527f726f206164647265737300000000000000000000000000000000000000000000602082015250565b7f4552433732313a206f776e657220717565727920666f72206e6f6e657869737460008201527f656e7420746f6b656e0000000000000000000000000000000000000000000000602082015250565b7f4552433732313a206d696e7420746f20746865207a65726f2061646472657373600082015250565b7f4552433732313a20617070726f76656420717565727920666f72206e6f6e657860008201527f697374656e7420746f6b656e0000000000000000000000000000000000000000602082015250565b7f4f776e61626c653a2063616c6c6572206973206e6f7420746865206f776e6572600082015250565b7f4552433732313a20617070726f76616c20746f2063757272656e74206f776e6560008201527f7200000000000000000000000000000000000000000000000000000000000000602082015250565b7f4552433732313a207472616e736665722063616c6c6572206973206e6f74206f60008201527f776e6572206e6f7220617070726f766564000000000000000000000000000000602082015250565b7f455243373231456e756d657261626c653a20676c6f62616c20696e646578206f60008201527f7574206f6620626f756e64730000000000000000000000000000000000000000602082015250565b61325e81612bce565b811461326957600080fd5b50565b61327581612be0565b811461328057600080fd5b50565b61328c81612bec565b811461329757600080fd5b50565b6132a381612c38565b81146132ae57600080fd5b5056fea264697066735822122027d03d355d4ac25b5a36b870a9e31453909093d9dcae2abbf4a9ba34cc570e0964736f6c6343000804003368747470733a2f2f676174657761792e70696e6174612e636c6f75642f697066732f516d4e65695a785a545a486b557541483145555a746744585a6366587239506f4e6b3157465958646d434e5972782f59656c6c6f772e6a736f6e",
  "linkReferences": {},
  "deployedLinkReferences": {}
}